:020000040800F2
:1000000068080020ED010008B5570008E54F00081A
:10001000B157000831060008216800080000000000
:100020000000000000000000000000004958000827
:10003000CD07000800000000DD570008BD5800088B
:10004000070200080702000807020008070200086C
:10005000070200080702000807020008070200085C
:100060000702000807020008070200080507000849
:100070001507000807020008070200080702000829
:100080000702000800000000190500080702000828
:10009000070200080702000807020008070200081C
:1000A000070200080702000807020008070200080C
:1000B00007020008070200080702000807020008FC
:1000C00007020008070200080702000807020008EC
:1000D000070200080702000845660008070200083A
:1000E000CF070008070200080702000807020008FF
:1000F00007020008070200080702000800000000CD
:1001000000000000070200080000000007020008CD
:1001100007020008000000000702000807020008AC
:10012000070200080702000807020008070200088B
:10013000070200080000000000000000070200089D
:10014000070200080702000800000000000000008D
:10015000000000000000000000000000000000009F
:10016000000000000000000000000000070200087E
:10017000070200080000000000000000000000006E
:10018000000000000702000800000000000000005E
:10019000000000000000000000000000000000005F
:1001A000000000000000000007020008070200082D
:1001B000070200080702000807020008000000000C
:1001C000000000000702000800000000000000001E
:1001D0000702000807020008DFF80CD000F0BEF8A4
:1001E00000480047D9690008680800200648804791
:1001F00006480047FEE7FEE7FEE7FEE7FEE7FEE70C
:10020000FEE7FEE7FEE7FEE751590008D9010008C6
:100210002DE9F05F0546002092469B46884606463B
:10022000814640241BE0284641464746224600F0CE
:1002300041F853465A46C01A914110D31146184608
:10024000224600F028F82D1A67EB01084F46224697
:100250000120002100F01FF817EB00094E41201E7D
:10026000A4F10104DFDC484631462A464346BDE896
:10027000F09FD2B201E000F8012B491EFBD270477B
:100280000022F6E710B513460A4604461946FFF762
:10029000F0FF204610BD202A04DB203A00FA02F1CC
:1002A000002070479140C2F1200320FA03F3194364
:1002B00090407047202A04DB203A21FA02F0002106
:1002C000704721FA02F3D040C2F120029140084366
:1002D00019467047F0B400F0004221F0004120F0D0
:1002E0000040CE0DC30DC1F3160141F40001C0F36F
:1002F00016004C42154640F40000761E09E010EB53
:10030000440002D582F0004240428842F7D84000C3
:100310005B1EB342F9DA18B1F0BC002100F039B825
:100320002846F0BC7047002801DBC0F100400029DE
:1003300001DBC1F10041814202D24FF0004004E0F4
:100340004FF0005001D14FF0C0404FEA2062EFF370
:10035000008162F31F6181F300887047064C074DEE
:1003600006E0E06840F0010394E807009847103485
:10037000AC42F6D3FFF734FF04730008247300087F
:100380000029A8BF7047401C490008BF20F00100A9
:10039000704710B4B0FA80FC00FA0CF050EA010487
:1003A00004BF10BC704749B1CCF1200421FA04F419
:1003B00011FA0CF118BF012121430843A3EB0C01F2
:1003C000CB1D4FEA00614FEA102042BF002010BC55
:1003D000704700EBC35010440029A4BF10BC704705
:1003E000401C490008BF20F0010010BC704700000D
:1003F0009FED221A9FED222A20EE010AB5EE001A87
:1004000030EE010ABDEEC01A11EE100AB5EE400A38
:10041000F1EE10FAB8BF013801EE100AB8EEC11AB9
:1004200030EE410A20EE020ABDEEC01A9FED152AF9
:1004300011EE100A002130EE021AB1EB502F46F6F1
:1004400000311CBF0020B0EE410AC0F6000101EEF1
:10045000100A01EB8001B8EE411A30EE410A91ED2D
:10046000001A91ED012AB7EE003A33EE403A23EE3E
:10047000011A20EE020A31EE000A704783F9223E8B
:1004800000000044000000C49FED201A9FED202AC8
:1004900020EE010ABDEEC01A11EE100AB5EE400AB8
:1004A000F1EE10FAB8BF013801EE100AB8EEC11A29
:1004B00030EE410A20EE020ABDEEC01A9FED152A69
:1004C00011EE100A002130EE021AB1EB502F46F661
:1004D00000311CBF0020B0EE410AC0F6000101EE61
:1004E000100A01EB8001B8EE411A30EE410A91ED9D
:1004F000001A91ED012AB7EE003A33EE403A23EEAE
:10050000011A20EE020A31EE000A704783F9223EFA
:1005100000000044000000C410B5034801F096FD3F
:10052000024801F093FD10BDD400002040010020DE
:1005300070B50446206804F08FFD0646206804F07C
:1005400090FD70B36EBB2068806800F00D0001283C
:100550000AD120688168174A1140891C816000BF58
:1005600003202168086009E0E06D40F01000E065BC
:10057000206E40F001002066012070BD02F03AFCC0
:1005800005460FE002F036FC401B02280AD9E06D58
:1005900040F01000E065206E40F001002066012070
:1005A000EBE705E02068806800F001000028E9D151
:1005B0000020E2E7C0FFFF7F70B50446206804F02A
:1005C00050FD88BB206880681849084048B1E06D3C
:1005D00040F01000E065206E40F001002066012030
:1005E00070BD206804F000FD02F004FC054615E033
:1005F000206804F036FD10B9206804F0F5FC02F024
:10060000F9FB401B022809D9E06D40F01000E065BD
:10061000206E40F0010020660120E1E720680068BC
:1006200000F001000028E3D00020D9E73F0000805F
:1006300000BFFEE770B503460C4600210BE0480002
:10064000401C34F810004E0034F8166040EA0640B2
:100650001E683060491CB1EB520FF0D302F001006C
:1006600020B11D68480034F8100028801868006820
:1006700070BDF0B504460B46002113E013F82100CD
:1006800007068800401C185C47EA00478800801C69
:10069000185C47EA00208F00FF1CDF5D38432768A5
:1006A0003860491CB1EB920FE8D302F0030030B37D
:1006B00002F00300012803D113F8210027683870E5
:1006C00002F00300022808D18800401C185C13F8CF
:1006D000217040EA07252668358002F003000328D0
:1006E0000DD18800401C185C13F8217040EA0725E2
:1006F000266835808800801C185C27683870206860
:100700000068F0BD10B5024802F004F910BD000009
:100710004003002010B5024802F0FCF810BD0000B4
:10072000A003002030B50E4D0468AC4201D20D4943
:1007300001E00C4920310B460478083C1425B4FB39
:10074000F5F2446CA40803EB84048464054C803403
:10075000C46402F01F050124AC40046530BD0000F4
:10076000080402400008024001794A1E064B03EBD0
:1007700082024265044A403282654A1E02F01F032B
:1007800001229A40C26570470009024030B5D0E9A5
:1007900013546C60446D14B1D0E916546C6090F839
:1007A000444004F01F050124AC40056C6C600468F3
:1007B00063608468102C04D10468A2600468E1605E
:1007C00003E00468A1600468E26030BD704710B5C2
:1007D0004FF4806002F00EFA10BD7047DFED0A1A88
:1007E00060EE211A30EE812ADFED082A42EE621A0D
:1007F000C0ED001A70EEC11A9FED052A61EE821A53
:10080000C1ED001A70470000ABAA2A3FABAAAA3E6E
:100810003ACD133F002004490968086003480021CD
:100820000160416070470000CC6A000800000020B1
:1008300030B52DED0A8B83B0FE48D0ED030AB0EE43
:10084000600AFFF721FEF0EE409AFA48D0ED030A65
:10085000B0EE600AFFF7CCFDB0EE408AF548D0ED6F
:10086000021AB0EE611AD0ED011AF0EE610AD0ED75
:10087000001AB0EE610A01A902A8FFF7AFFF9DEDD3
:10088000020A20EE080ADDED010A00EEA90ADFEDFA
:10089000EA0A30EEC00AF0EE40AAE84890ED000AFD
:1008A000DFEDE70A0AEEA00AF0EE408AB2EE040A93
:1008B000F4EEC08AF1EE10FA02DDF2EE04BA0BE0BB
:1008C000BAEE040AF4EEC08AF1EE10FA02D2FAEEA1
:1008D00004BA01E0F0EE68BA9DED010A20EE080AC4
:1008E000DDED020A00EEE90AD248D0ED050A30EE4D
:1008F000C0BAD24890ED010ADFEDD10AB0EE409ABD
:100900000BEE209AB2EE040AB4EEC09AF1EE10FAA1
:1009100008DDB2EE04AAB2EE040A39EE400AB0EEE7
:10092000409A1DE0BAEE040AB4EEC09AF1EE10FA55
:1009300002D2BAEE04AA01E0B0EE49AABAEE040A65
:10094000B4EEC09AF1EE10FA04DB9FEDBB0AB0EEF4
:10095000409A05E0BAEE040A39EE400AB0EE409A39
:100960002BEE880A0AEE690A8DED010A9DED010A57
:10097000FEEE000A20EE200A8DED020A29EEAB0AF7
:100980000AEE080ADFEDAF0A20EE200AB0EE40AA18
:100990009DED020A30EE0A0AF0EE40BA9DED020A21
:1009A00030EE4A0AB0EE40AAF0EE6B0A9DED010A65
:1009B00005F078FFB0EE40CAF0EE4A0A05F072FF8B
:1009C000F0EE40CAF0EE6B0A9DED010A05F046FF1D
:1009D000B0EE40CAF0EE4A0A05F040FF3CEE800A55
:1009E000FEEE000A20EE200A8DED020AB5EEC09A56
:1009F000F1EE10FA01D0012000E000200446B5EE2F
:100A0000C09AF1EE10FA04D2BFEE000AB0EE409A9E
:100A100008E0B5EEC09AF1EE10FA03DDB7EE000A79
:100A2000B0EE409A9FED880A2BEE000AB0EE40BA75
:100A3000B2EE040AF4EEC08AF1EE10FA06DDB2EE70
:100A4000040A38EEC00AF0EE408A11E0BAEE040A59
:100A5000F4EEC08AF1EE10FA04DB9FED770AF0EEB7
:100A6000408A05E0BAEE040A38EEC00AF0EE408A89
:100A7000F5EEC08AF1EE10FA01D0012000E000206E
:100A80000546F5EEC08AF1EE10FA04D2BFEE000A78
:100A9000F0EE408A08E0F5EEC08AF1EE10FA03DDD0
:100AA000B7EE000AF0EE408A9FED670A2AEE800A50
:100AB000F0EE40AADFED650AB0EE680A05F016FF19
:100AC000F0EE409AF5EEC0AAF1EE10FA04D2BFEEB5
:100AD000000AB0EE408A0BE0F5EEC0AAF1EE10FA83
:100AE00004DDB7EE000AB0EE408A01E0B0EE6A8A9B
:100AF000DFED560AB0EE480A05F0F8FEB0EE408A87
:100B00005DB3F5EEC09AF1EE10FA08D2B1EE690AC3
:100B1000BCEEC00A10EE100A404240B204E0BCEE47
:100B2000E90A10EE100A40B2B5EEC08AF1EE10FAF2
:100B300008D2B1EE480ABCEEC00A10EE101A4942C3
:100B400049B204E0BCEEC80A10EE101A49B288425D
:100B500003D19FED390AF0EE40AA384890ED000A23
:100B6000DFED3B0A00EEAA0A80ED000ADFED370A4E
:100B7000B0EE490A05F0BAFEF0EE409AB5EEC0BA02
:100B8000F1EE10FA04D2BFEE000AF0EE40AA0BE03C
:100B9000B5EEC0BAF1EE10FA04DDB7EE000AF0EEE1
:100BA00040AA01E0F0EE4BAADFED280AB0EE6A0A97
:100BB00005F09CFEB0EE408A5CB3F5EEC09AF1EE13
:100BC00010FA08D2B1EE690ABCEEC00A10EE100AA3
:100BD000404240B204E0BCEEE90A10EE100A40B216
:100BE000B5EEC08AF1EE10FA08D2B1EE480ABCEEBA
:100BF000C00A10EE101A494249B204E0BCEEC80A1D
:100C000010EE101A49B2884203D19FED0B0AB0EEE4
:100C100040BA0A4890ED010ADFED0D0A00EE8B0A9A
:100C200080ED010A9DED020ADDED010A30EE200A99
:100C300010E000002C000020000000000000002058
:100C4000D1297B3ED7B35D3F8D8B5D430000804350
:100C500017B7D138B1EE400A1F48D0ED040A80EE34
:100C6000201AB6EE000A31EE000ADFED1C0A20EE73
:100C7000200A1B4880ED000A9DED020A30EE2B0A87
:100C8000B1EE400A1448D0ED040A80EE201AB6EE08
:100C9000000A31EE000ADFED110A20EE200A1048AA
:100CA00080ED010A9DED020A30EE0A0AB1EE400A1B
:100CB0000948D0ED040A80EE201AB6EE000A31EEA3
:100CC000000ADFED060A20EE200A054880ED020A40
:100CD00003B0BDEC0A8B30BD2C00002000388345EA
:100CE00044000020F8B504460D460020009000BFE7
:100CF00094F85800012801D10220F8BD012084F8A1
:100D0000580000BF2046FFF713FC06468EBBE06D7F
:100D100020F4885040F00200E065206881681B4A9A
:100D2000114005F0804242F000421143816000BF53
:100D300013E00098401C00901549009888420CD39D
:100D4000E06D20F0020040F01000E06500BF0020E0
:100D500084F8580000BF0120CFE720688168C90FE0
:100D60000029E6D1E06D20F0020040F00100E065CE
:100D700004E0FFE7E06D40F01000E06500BF0020F8
:100D800084F8580000BF3046B7E70000C0FFFF3FBF
:100D900002DE0400704700002DE9FC5F05460C46AA
:100DA0000020019000900027686900B100BFFE4953
:100DB000E068884200D000E000BF00BF95F858000E
:100DC000012802D10220BDE8FC9F012085F85800CF
:100DD00000BF686910B1206A01281ED16068092827
:100DE0004ED1A06A60B194F8280000F07C00216820
:100DF000C1F3846140EA4120E16A40EA010703E06F
:100E00002068C0F3846047022868C06CE749084046
:100E100038432968C8646F6632E0A86E90B9216AC9
:100E2000A96600206866A06A50B1206A401E94F846
:100E3000281001F07C010843E16A40EA010701E063
:100E4000206A471E207900F01F0100208840874358
:100E50002068C0F38460217901F01F0188400743B6
:100E6000A86E401EA866686E38436866A86E38B9DA
:100E70002868C06CCD490840696E08432968C86479
:100E8000286804F0DAF8D8B994F8250070B994F815
:100E90002600400594F8241040EA01502968C968EA
:100EA00021F4401108432968C86009E02868C06837
:100EB00020F4401094F8261040EA41502968C86098
:100EC000286804F0E2F88246286804F0B6F8814603
:100ED000BAF1000F7ED1B9F1000FFBD1A06A08B1C1
:100EE000E06A88B994F82500012806D12868C0680E
:100EF00040F000702968C86017E02868C06820F0DA
:100F000000702968C86010E094F82500012806D117
:100F1000E86D40F02000E8650120019005E02868B8
:100F2000C06820F000702968C86094F8300001287B
:100F30000CD1606B40F00200A16B0843296809697D
:100F400021F4FF7108432968086105E028680069F9
:100F500020F0020029680861A068B0F1004F0AD1B2
:100F600021680022286804F0B2F84FF00041286898
:100F700004F0E9F808E0A2682168286804F0A7F8FE
:100F80000021286804F0DFF860692968C968C1F3A6
:100F9000C101490000FA01F82069042840D02868FE
:100FA0002268216900F1600C0CEB8103D3F800C0CA
:100FB000DFF8FCB10CEA0B0C02F0F84B4BF0004BE5
:100FC0004BEA080B4CEA0B0CC3F800C000BF2868C2
:100FD000A26900E0CCE0216900F1600C0CEB810318
:100FE000D3F800C02CF0807C4CEA020CC3F800C09F
:100FF00000BF2868227F2169012A01D1520600E042
:101000000022134600F1600C0CEB8102D2F800C004
:101010002CF0007C4CEA030CC2F800C000BFA7E033
:101020000021286803F0F6FFC0F3120030B9002158
:10103000286803F0EFFFC0F3846007E00021286810
:1010400003F0E8FF90FAA0F0B0FA80F02168C1F355
:10105000120119B92168C1F3846104E0216891FA91
:10106000A1F1B1FA81F1884204D100221146286829
:1010700004F058F80121286803F0CCFFC0F31200F7
:1010800030B90121286803F0C5FFC0F3846007E090
:101090000121286803F0BEFF90FAA0F0B0FA80F0BA
:1010A0002168C1F3120119B92168C1F3846104E018
:1010B000216891FAA1F1B1FA81F1884204D10022AC
:1010C0000121286804F02EF80221286803F0A2FF0D
:1010D000C0F3120030B90221286803F09BFFC0F36F
:1010E000846007E00221286803F094FF90FAA0F0E2
:1010F000B0FA80F02168C1F3120119B92168C1F377
:10110000846104E0216891FAA1F1B1FA81F1884289
:1011100004D100220221286804F004F80321286881
:1011200003F078FFC0F3120030B90321286803F000
:1011300071FFC0F3846007E00321286803F06AFFB1
:1011400090FAA0F0B0FA80F02168C1F3120119B949
:101150002168C1F3846104E0216891FAA1F1B1FA38
:1011600081F1884204D100220321286803F0DAFFCC
:10117000286803F07BFF002873D12868E2682168A3
:10118000D0F8B030C1F3120C23EA0C0302F0180BB4
:10119000DFF820C02CFA0BFC0CEA010C43EA0C032C
:1011A000C0F8B03000BF07E000007F4000401004EE
:1011B00000F0FF03FFFF07007849E068884250D144
:1011C0002368C3F312031BB92368C3F3846304E0E9
:1011D000236893FAA3F3B3FA83F35B1C03F01F03B2
:1011E000092B3FD82368C3F312031BB92368C3F349
:1011F000846304E0236893FAA3F3B3FA83F35B1CDC
:1012000003F01F034FF0010C0CFA03FC2368C3F337
:1012100012031BB92368C3F3846304E0236893FAC1
:10122000A3F3B3FA83F35B1C03F01F034CEA836C54
:101230002368C3F312031BB92368C3F3846304E078
:10124000236893FAA3F3B3FA83F35B1C03F01F0341
:1012500003EB43034FF0000B4BEA03534CEA030349
:101260003FE043E02368C3F312031BB92368C3F3D1
:10127000846304E0236893FAA3F3B3FA83F35B1C5B
:1012800003F01F034FF0010C0CFA03FC2368C3F3B7
:1012900012031BB92368C3F3846304E0236893FA41
:1012A000A3F3B3FA83F35B1C03F01F034CEA836CD4
:1012B0002368C3F312031BB92368C3F3846304E0F8
:1012C000236893FAA3F3B3FA83F35B1C03F01F03C1
:1012D0000A3B03EB43034FF0007B4BEA03534CEA1A
:1012E00003031946A268286803F0F1FE2C49206820
:1012F000084048B300BF2B48806800F0E07600BF8C
:1013000029492068884203D02849206888421CD196
:1013100006F40000C8B92868B0F1A04F36D146F4F1
:101320000001204803F0EDFE214800682149B0FB90
:10133000F1F000EB40008000009002E00098401EB9
:10134000009000980028F9D120E01B4920688842CD
:101350000CD106F0807048B918492868884215D029
:1013600046F080710F4803F0CCFE0FE0144920686E
:1013700088420BD106F4800040B9104928688842A1
:1013800004D046F48001074803F0BBFE00BF0020F4
:1013900085F8580000BF019815E5000000007F4067
:1013A0000000088000030050000021C31000C0901E
:1013B00024000020400D0300000052C7000100502F
:1013C000000084CB2DE9F0412DED028B0546E1496B
:1013D0002868096888427CD10020DF490968486292
:1013E000DE480068406AA0F5803000EE100AB8EED2
:1013F000C00AB0EE408ADA48B0F9220000EE100AC6
:10140000B8EEC00A30EE080ABDEEC00A10EE100AAF
:1014100000B2D34948844FF48030D049096848620B
:10142000CF48B0F92200B0F5FA6F07DDCC48408C08
:10143000A0F5FA6000B2CA4948840BE0C848B0F988
:101440002200002806DAC648408C00F5FA6000B297
:10145000C3494884C248B0F9220000EE100AB8EE31
:10146000C00ADFEDC00A20EE200ABD4880ED070A61
:101470000921B84800F08CF986B240F20F11B54846
:1014800000F086F984B20921B74800F081F987B2EB
:10149000C6F5006000EE100AB8EEC00ADFEDB30A30
:1014A00020EE200AAE4880ED040AC7F5006000EE89
:1014B000100AB8EEC00ADFEDAD0A20EE200AA848F7
:1014C00080ED050A90ED040AD0ED050A30EE200A01
:1014D00000E03BE1B1EE400A80ED030A00EE104A65
:1014E000B8EE400ADFEDA20A20EE200A80ED060ADF
:1014F000A04890ED020AB5EEC00AF1EE10FA03D052
:1015000001209749087002E0002095490870994829
:1015100090ED000A924880ED010A90ED010AF2EE8A
:10152000040AB4EEE00AF1EE10FA04DDB2EE040AA9
:1015300080ED010A0DE08A4890ED010AFAEE040AF6
:10154000B4EEE00AF1EE10FA03D2BAEE040A80ED2E
:10155000010A884890ED010A814880ED020A40782E
:1015600005287DD2DFE800F0031C2B048C0000BFAF
:101570007B48007801280CD1FFF74CF904F01CF9E6
:10158000012077494870002241027B4801F02CFC81
:1015900005E0002220214FF0904001F025FC7EE084
:1015A000012220214FF0904001F01EFC322001F07A
:1015B000FBFA02206A49487004F048F96FE0684875
:1015C00090ED010A6D4880ED050A654890ED030A2B
:1015D0006A4880ED000A624890ED040A674880ED91
:1015E000010A5F4890ED050A644880ED020A5C48F4
:1015F00090ED070A614880ED030A594890ED060A0C
:101600005E4880ED040AFFF713F95D4890ED000A8B
:10161000BCEEC00A10EE100A5A490860584890ED16
:10162000010ABCEEC00A10EE100A091D08605448F9
:1016300090ED020ABCEEC00A10EE100A091D086007
:1016400047480078A8B903204549487004F01AF9C2
:10165000002220214FF0904001F0C6FB322000E034
:101660001CE001F0A1FA00224FF40071424801F0A1
:10167000BBFB3B48807810B10420394948700EE02C
:1016800004F000F9012251023B4801F0ADFB0022B9
:1016900020214FF0904001F0A7FB00E000BF00BF09
:1016A0002F4890ED060AF2EE040AB4EEE00AF1EEDD
:1016B00010FA03D201202A4988703AE0284890EDB8
:1016C000060ADFED310AB4EEE00AF1EE10FA17DD9A
:1016D00090F82A1090F82A00401C214A82F82A002B
:1016E000052926DD02201146887000228021274826
:1016F00001F07AFB1A4890ED060A80ED0B0A18E01B
:10170000174890ED060AF3EE0E0AB4EEE00AF1EE89
:1017100010FA05DD012280211C4801F065FB08E07C
:1017200000228021194801F05FFB00200C4981F85C
:101730002A0004F0B9FF08480068406A00EE100A69
:10174000B8EE400A064880ED090A00BFBDEC028BE6
:10175000BDE8F081D4000020680200201C020020B7
:10176000680000202EE34D3B4001002026E4833C2E
:1017700049A42B3C50000020000800482C00002009
:1017800044000020342C01400000104200040048B6
:101790000246092915D0A1F20F136BB1B3F5837F6F
:1017A00006D0B3F5037F0BD11368D3F88C000CE09F
:1017B0001368D3F8880008E01368D3F8840004E0C5
:1017C00000BF1368D3F8800000BF00BF70477047A8
:1017D0002DE9F041044600BF3D48806800F01F003D
:1017E0000546206803F029FC10B10220BDE8F08115
:1017F0002068C06800F000472068C06C00F4C0702A
:1018000030B92FB9E06D40F02000E0650120EDE730
:1018100000BF94F85800012801D10220E6E701201A
:1018200084F8580000BF2046FEF7C6FE0646002E8C
:1018300046D1E06D00F4807020B1206E20F00800E9
:10184000206601E000202066E06D42F2010188433D
:1018500040F48050E0651F492068884202D14FF073
:10186000A04000E020682168884200D01DB9E06DEA
:1018700020F48010E06560202168086000BF00202F
:1018800084F8580000BF13492068884202D14FF005
:10189000A04000E020682168884204D01DB1062DD8
:1018A00001D0072D07D1206803F0BDFB68B920687F
:1018B00003F0C8FB09E0E06D40F48010E06504E04F
:1018C00000BF002084F8580000BF30468EE70000BB
:1018D00000030050000100502DE9F041044600BF14
:1018E0005248806800F01F000546206803F0A5FB01
:1018F00010B10220BDE8F0812068C06800F0004708
:101900002068C06C00F4C07030B92FB9E06D40F0B1
:101910002000E0650120EDE700BF94F858000128A1
:1019200001D10220E6E7012084F8580000BF2046DC
:10193000FEF742FE0646002E70D1E06D00F4807086
:1019400020B1206E20F00800206601E00020206613
:10195000E06D42F20101884340F48050E065344973
:101960002068884202D14FF0A04000E02068216842
:10197000884200D01DB9E06D20F48010E065602041
:101980002168086000BF002084F8580000BF20686C
:10199000C06800F4001028B12068406840F48060FE
:1019A00021684860A06908280CD12068406820F0B0
:1019B0002000216848602068406840F040002168AD
:1019C00048600CE02068406820F0400021684860D2
:1019D0002068406840F020002168486000BF00BFD8
:1019E00013492068884202D14FF0A04000E02068EF
:1019F0002168884204D01DB1062D01D0072D07D1E2
:101A0000206803F010FB70B9206803F01BFB0AE0AC
:101A1000E06D40F48010E06505E0FFE700BF0020C6
:101A200084F8580000BF304664E70000000300500F
:101A300000010050704770472DE9F0439BB0044609
:101A40000E464FF00008306800B100BF00BF94F8A8
:101A50005800012803D102201BB0BDE8F08301200B
:101A600084F8580000BF2068B0F1A04F02D132487E
:101A7000009001E000200090009850B9E06D40F027
:101A80002000E06500BF002084F8580000BF01205E
:101A9000E2E7009803F0F9FA0746206803F0F5FA48
:101AA000D8BBD7BB254D306800B394F838007168B7
:101AB00041EA4030A96821F460410843A8604FF032
:101AC000A04003F0D3FA81461B4803F0CFFA49EA5D
:101AD0000009B9F1000F27D1B16830680843A9683F
:101AE00040F61F7291430843A8601DE0A86820F4E7
:101AF0006040A8604FF0A04003F0B8FA81460E485D
:101B000003F0B4FA49EA0009B9F1000F0CD1A86852
:101B100040F61F718843A86006E0FFE7E06D40F0E3
:101B20002000E0654FF0010800BF002084F8580055
:101B300000BF404690E70000000100500003005045
:101B40002DE9F84F05460C464FF0000A00200090A2
:101B5000FE49E068884200D000E000BF00BF95F871
:101B60005800012802D10220BDE8F88F012085F835
:101B7000580000BF286803F083FA00287DD1296847
:101B8000D4E9002001F1300CC0F3012B0CEB8B03E6
:101B9000D3F800C000F01F0E4FF01F0B0BFA0EFB26
:101BA0002CEA0B0C00F01F0BC2F3846E0EFA0BFE36
:101BB0004CEA0E0CC3F800C000BF286803F060FABE
:101BC0008146286803F034FA8046B9F1000F64D1E9
:101BD000B8F1000FFBD1A068B0F1004F0AD1216825
:101BE0000022286803F05FFA4FF00041286803F0F4
:101BF000A4FA08E0A2682168286803F054FA0021DA
:101C0000286803F09AFA60692968C968C1F3C101BC
:101C1000490000FA01F7206904283FD028682268AB
:101C2000216900F1600C0CEB8103D3F800C0DFF8F0
:101C300020B30CEA0B0C02F0F84B4BF0004B4BEAD4
:101C4000070B4CEA0B0CC3F800C000BF2868A26960
:101C5000216900F1600C0CEB8103D3F800C02CF07B
:101C6000807C4CEA020CC3F800C000BF2868227FC9
:101C70002169012A02D1520601E0C5E10022134682
:101C800000F1600C0CEB8102D2F800C02CF0007C5B
:101C90004CEA030CC2F800C000BFA7E0002128688E
:101CA00003F0AFF9C0F3120030B90021286803F047
:101CB000A8F9C0F3846007E00021286803F0A1F9C7
:101CC00090FAA0F0B0FA80F02168C1F3120119B9BE
:101CD0002168C1F3846104E0216891FAA1F1B1FAAD
:101CE00081F1884204D100221146286803F00FFADE
:101CF0000121286803F085F9C0F3120030B90121F1
:101D0000286803F07EF9C0F3846007E001212868A9
:101D100003F077F990FAA0F0B0FA80F02168C1F3EF
:101D2000120119B92168C1F3846104E0216891FAB4
:101D3000A1F1B1FA81F1884204D100220121286881
:101D400003F0E5F90221286803F05BF9C0F3120003
:101D500030B90221286803F054F9C0F3846007E029
:101D60000221286803F04DF990FAA0F0B0FA80F053
:101D70002168C1F3120119B92168C1F3846104E03B
:101D8000216891FAA1F1B1FA81F1884204D10022CF
:101D90000221286803F0BBF90321286803F031F918
:101DA000C0F3120030B90321286803F02AF9C0F308
:101DB000846007E00321286803F023F990FAA0F07B
:101DC000B0FA80F02168C1F3120119B92168C1F39A
:101DD000846104E0216891FAA1F1B1FA81F18842AD
:101DE00004D100220321286803F091F9286803F048
:101DF00038F9002872D12868E2682168D0F8B0303C
:101E0000C1F3120C23EA0C0302F0180BDFF844C1F3
:101E10002CFA0BFC0CEA010C43EA0C03C0F8B030BE
:101E200000BF4A49E068884258D12368C3F31203CF
:101E30001BB92368C3F3846304E0236893FAA3F314
:101E4000B3FA83F35B1C03F01F03092B3ED823680E
:101E5000C3F312031BB92368C3F3846304E023684C
:101E600093FAA3F3B3FA83F35B1C03F01F034FF061
:101E7000010C0CFA03FC2368C3F312031BB923689B
:101E8000C3F3846304E0236893FAA3F3B3FA83F300
:101E90005B1C03F01F034CEA836C2368C3F312033B
:101EA0001BB92368C3F3846304E0236893FAA3F3A4
:101EB000B3FA83F35B1C03F01F0303EB43034FF000
:101EC000000B4BEA03534CEA030347E02368C3F3D8
:101ED000120323B92368C3F3846305E043E0236856
:101EE00093FAA3F3B3FA83F35B1C03F01F034FF0E1
:101EF000010C0CFA03FC2368C3F312031BB923681B
:101F0000C3F3846304E0236893FAA3F3B3FA83F37F
:101F10005B1C03F01F034CEA836C2368C3F31203BA
:101F20001BB92368C3F3846304E0236893FAA3F323
:101F3000B3FA83F35B1C03F01F030A3B03EB430379
:101F40004FF0007B4BEA035306E0000000007F40A7
:101F500000F0FF03FFFF07004CEA03031946A268E5
:101F6000286803F0A0F82F492068084048B300BF54
:101F70002D48806800F0E07600BF2C492068884238
:101F800003D02B49206888421CD106F40000C8B950
:101F90002868B0F1A04F3DD146F40001224803F07B
:101FA000AAF8244800682449B0FBF1F000EB400097
:101FB0008000009002E00098401E009000980028E9
:101FC000F9D127E01D49206888420CD106F08070C5
:101FD00048B91B49286888421CD046F080711248D5
:101FE00003F089F816E017492068884212D106F4F8
:101FF000800078B91249286888420BD046F48001E5
:10200000094803F078F805E0E86D40F02000E86545
:102010004FF0010A00BF002085F8580000BF50466D
:10202000A2E500000000088000030050000021C36A
:102030001000C09024000020400D0300000052C793
:1020400000010050000084CB704770472DE9F84F25
:102050000446002000902068056820684668C5484E
:1020600002F0CAFF074605F00200022811D106F06F
:10207000020002280DD1E06D00F0100018B9E06DEB
:1020800040F40060E0652046FEF784FE02202168EF
:10209000086005F00400042803D106F004000428B9
:1020A00007D005F0080008285FD106F008000828CE
:1020B0005BD1E06D00F0100018B9E06D40F40070E5
:1020C000E065206802F0E6FF002848D0AA492068B1
:1020D000884202D14FF0A04000E020682168884289
:1020E00004D01FB1052F01D0092F03D12068D0F8EB
:1020F0000C800AE0A0492068884202D14FF0A0403D
:1021000000E020688346DBF80C8008F40050B0F54E
:10211000005F24D02068006800F0080008281ED165
:10212000206802F0ADFF90B92068406820F00C00F4
:1021300021684860E06D20F48070E065E06D00F497
:10214000805060B9E06D40F00100E06507E0E06DAF
:1021500040F01000E065206E40F00100206620464F
:10216000FFF772FF0C202168086005F0200020288E
:1021700003D106F02000202807D005F040004028B9
:1021800072D106F0400040286ED1E06D00F01000E2
:1021900018B9E06D40F40050E0652068C16C01F4AE
:1021A000C07109B9012100E000218A4600BF206802
:1021B00002F070FF814670492068884202D14FF0DA
:1021C000A04000E020682168884204D01FB1062F9B
:1021D00001D0072F03D12068D0F80C800AE06649AF
:1021E0002068884202D14FF0A04000E0206883467A
:1021F000DBF80C80BAF1000F08D108F0007020BBAA
:10220000B9F1000F2AD008F40050F0B92068006836
:1022100000F04000402821D108F40010A8B920683F
:1022200002F006FF90B92068406820F06000216845
:102230004860E06D20F48050E065E06D00F480704F
:1022400018B9E06D40F00100E06507E0E06D40F096
:102250001000E065206E40F0010020662046FFF788
:10226000B1F860202168086005F0800080280DD159
:1022700006F08000802809D1E06D40F48030E065F0
:10228000204600F0ADF980202168086005F48070D8
:10229000B0F5807F0FD106F48070B0F5807F0AD151
:1022A000E06D40F40030E0652046FFF7C3FB4FF4DB
:1022B00080702168086005F40070B0F5007F0FD1D0
:1022C00006F40070B0F5007F0AD1E06D40F4802084
:1022D000E0652046FFF7AFFB4FF40070216808600F
:1022E00005F0100010282AD106F01000102826D181
:1022F000E06B10B90120009010E047B100BF1D480D
:10230000806800F4604048B10120009006E0206839
:10231000C06800F0010008B1012000900098012879
:102320000AD1E06D40F48060E065206E40F002006C
:1023300020662046FFF789FE10202168086005F41A
:102340008060B0F5806F13D106F48060B0F5806FC7
:102350000ED1E06D40F48040E065206E40F0080052
:1023600020664FF48060216808602046FFF72FFA4E
:10237000BDE8F88F00030050000100502DE9F84F30
:1023800004464FF000090020009014B90120BDE878
:10239000F88F606920B194F82400012800D100BFB3
:1023A000E06D30B9204600F01DF90020206684F869
:1023B000580020688168C1F3407131B1206881689C
:1023C000804A1140816000BF00BF206802F053FEC8
:1023D000A0B9206881687C4A114041F08051816039
:1023E00000BF7A4800687A49B0FBF1F0009002E043
:1023F0000098401E009000980028F9D1206802F053
:102400003AFE48B9E06D40F01000E065206E40F003
:10241000010020664FF00109206802F031FE0646F7
:10242000E06D00F0100000287CD1002EFCD1E06DA2
:1024300020F4807040F00200E065206802F011FE98
:10244000B0B94FF0A04002F00CFE8246614802F0A5
:1024500008FE4AEA000ABAF1000F09D160685E4935
:10246000896821F47C1101435B4A916000BF00BF81
:10247000607FE16B41EA4030E1680843A1680843AE
:1024800094F8241040EA014594F82400012803D16F
:10249000208D401E45EA4045E06A28B1A08D00F439
:1024A0007870216B084305432068C0684B49084099
:1024B00028432168C8602068006920F04060616B93
:1024C000084321680861206802F0DAFD8046206830
:1024D00002F0AEFD0746B8F1000F50D1F7BB207FE8
:1024E000002141EA803194F8380041EA4005206833
:1024F000C06844F20201884328432168C86020690B
:1025000088B12068006940F4803021680861206843
:10251000D0F8C0006FF30D00216908432168C1F8AD
:10252000C0000EE045E02068006920F4803021689A
:1025300008612068D0F8C0006FF30D002168C1F871
:10254000C00094F84000012813D1606C40F00101F4
:10255000A06C0843E16C0843216D00E00FE00843E4
:102560002168096940F2FC729143084321680861BF
:1025700005E02068006920F00100216808616069B9
:10258000012809D12068006B20F00F00216A491E44
:1025900008432168086305E02068006B20F00F0005
:1025A00021680863E06D20F0020040F00100E06562
:1025B00005E0E06D40F01000E0654FF0010948468D
:1025C000E5E60000C0FFFF5FC0FFFF7F24000020A2
:1025D000400D030000010050000300500740F0FFD1
:1025E0007047000010B586B00446142101A8FDF71D
:1025F00047FE2068B0F1A04F37D13A480068401C30
:10260000384908600846006801280DD100BF3648E7
:10261000C06C40F400503449C8640846C06C00F4F3
:102620000050009000BF00BF00BF2F48C06C40F0BA
:1026300001002D49C8640846C06C00F001000090FC
:1026400000BF00BF0320019002900020039001A969
:102650004FF0904000F0DCFA00220121122000F03F
:102660004DFC122000F036FC3AE0204920688842F8
:1026700036D11C480068401C1A49086008460068AA
:1026800001280DD100BF1848C06C40F40050164915
:10269000C8640846C06C00F40050009000BF00BF42
:1026A00000BF1148C06C40F004000F49C8640846E0
:1026B000C06C00F00400009000BF00BF0220019039
:1026C000032002900020039001A9094800F0A0FA1D
:1026D00000220121122000F011FC122000F0FAFB70
:1026E00006B010BD14000020001002400001005090
:1026F0000008004870B503460C4600201F2100BFAB
:102700000D1EA1F1010106D001F01F060125B54003
:102710002540002DF4D08AB1082A0BD0102A05D00C
:10272000182A0CD1072900D301200AE0082900D378
:10273000012006E0102900D3012002E001E0012081
:1027400000BF00BF40B91D686C611D68AD6825F011
:10275000180515431E68B56070BD2DE9F0410446AB
:102760000E4617464FF00008022060772068806808
:1027700040F0010021688860206A012810D00228FA
:1027800015D003281AD1002504E056F82500216849
:1027900008606D1CBD42F8D32068D0F800800EE0C0
:1027A0003A4631462046FDF764FF804607E03A4648
:1027B00031462046FDF73EFF804600E000BF00BFE7
:1027C000012060774046BDE8F081000010B5044666
:1027D0000CB9012010BD607F20B900202077204671
:1027E00000F036F802206077207948B91748216850
:1027F00048612068806820F018002168886007E040
:102800002046D4E90212FFF775FF08B10120E1E785
:10281000607920B94FF0FF302168086102E021683B
:10282000206908612068806820F0600061690843C1
:10283000216888602068806820F08000A1690843D2
:1028400021688860012060770020C3E7B71DC104BC
:1028500008B5094A016891420DD100BF0749896C4A
:1028600041F48051054A91641146896C01F480510C
:10287000009100BF00BF08BD0030024000100240C0
:1028800070B50446002594F8250002280BD00420DA
:10289000E063012084F8250000BF002084F82400B4
:1028A00000BF012534E02068006820F00E00216898
:1028B00008602068006820F0010021680860A06CB2
:1028C000006820F48070A16C086094F8440000F067
:1028D0001F0101208840216C4860D4E91310486032
:1028E000606D40B1606D006820F48070616D0860BB
:1028F000D4E916104860012084F8250000BF0020AC
:1029000084F8240000BFA06B10B12046A16B88475B
:10291000284670BD70B50446206C056820680668BE
:1029200094F8440000F01F01042088402840E0B1E2
:1029300006F00400C8B12068006800F0200028B943
:102940002068006820F004002168086094F84400C2
:1029500000F01F0104208840216C4860206B002893
:1029600056D02046216B884752E094F8440000F08E
:102970001F0102208840284018B306F0020000B36F
:102980002068006800F0200040B92068006820F04E
:102990000A0021680860012084F8250094F84400AA
:1029A00000F01F0102208840216C486000BF002019
:1029B00084F8240000BFE06A50B32046E16A8847EB
:1029C00026E094F8440000F01F01082088402840C9
:1029D000F0B106F00800D8B12068006820F00E00C1
:1029E0002168086094F8440000F01F01012088402D
:1029F000216C48600120E06384F8250000BF0020BE
:102A000084F8240000BF606B10B12046616B8847DA
:102A100070BD000070B504460CB9012070BD2F498F
:102A2000206888420BD22E492068401A1421B0FB3E
:102A3000F1F0800060642A48083820640AE02749E1
:102A40002068401A1421B0FBF1F080006064234834
:102A500008382064022084F825002068056847F6BD
:102A6000F0708543D4E90201084321690843616994
:102A70000843A1690843E1690843216A0843054303
:102A8000206805602046FDF74DFEA068B0F5804F38
:102A900001D1002060602079A16C0860D4E9131096
:102AA0004860606860B16068042809D82046FDF776
:102AB0005BFE0020616D0860D4E91610486003E0F9
:102AC00000206065A065E0650020E063012084F8D7
:102AD0002500002084F8240000BF9FE7080402407E
:102AE000080002402DE9F04104460D4616461F46F7
:102AF0004FF0000800BF94F82400012802D1022002
:102B0000BDE8F081012084F8240000BF94F825007E
:102B100001283FD1022084F825000020E0632068CE
:102B2000006820F00100216808603B4632462946D3
:102B30002046FDF72BFE206B30B12068006840F086
:102B40000E00216808600BE02068006820F0040097
:102B5000216808602068006840F00A002168086069
:102B6000A06C006800F4803028B1A06C006840F4CC
:102B70008070A16C0860606D28B1606D006840F4E1
:102B80008070616D08602068006840F00100216875
:102B9000086006E000BF002084F8240000BF4FF06A
:102BA00002084046ACE7000070B5044600F022F988
:102BB00006462546681C10B104480068054400BF5D
:102BC00000F018F9801BA842FAD370BD2000002045
:102BD000B0F5806F09D1054909680968C1F3001192
:102BE000034A118440F2DC51518470471C020020DA
:102BF0006800002010B5044604480068204020B159
:102C0000024804602046FFF7E3FF10BD14040140B2
:102C100078B503460022D0E0012696400D6805EA0B
:102C20000604002C72D04D68012D08D04D68022D8D
:102C300005D04D68112D02D04D68122D13D1986822
:102C400056000325B540A8435600CD68B54028433B
:102C50009860586801259540A8430D79C5F3001583
:102C6000954028435860D86856000325B540A843CE
:102C700056008D68B5402843D8604D68022D02D0BB
:102C80004D68122D13D1D60803F1200555F8260002
:102C90005507EE0E0F25B540A8435607F60E0D69F1
:102CA000B5402843D60803F1200545F826001868EA
:102CB00056000325B540A8430D7905F003055600DD
:102CC000B540284318604D6805F08055B5F1805F28
:102CD00072D100BF3C4D2D6E45F001053A4E356670
:102CE00035462D6E05F00105009500BF00BF4FEA87
:102CF000B635960855F8260095072E0F0F25B540D6
:102D0000A843B3F1904F02D100251AE054E02F4DB3
:102D1000AB4201D1012514E02D4DAB4201D102257A
:102D20000FE02C4DAB4201D103250AE02A4DAB4206
:102D300001D1042505E0294DAB4201D1052500E074
:102D400006259607360FB5402843254D960845F8C9
:102D50002600244D2868A0434D6805F48035B5F55C
:102D6000803F00D120431F4D28602D1D2868A043BF
:102D70004D6805F40035B5F5003F00D12043194DED
:102D80002D1D28602D1D2868A0434D6805F4801571
:102D9000B5F5801F00D12043124D083528602D1D48
:102DA0002868A0434D6805F40015B5F5001F00D153
:102DB00020430C4D0C352860521C0D68D540002D69
:102DC0007FF42AAF78BD00000010024000040048E4
:102DD00000080048000C004800100048001400489B
:102DE00008000140000401400AB1816100E08162F5
:102DF000704700000148006870470000180000207C
:102E0000034800680349096808440149086070479D
:102E1000180000202000002010B50024032000F03E
:102E2000ABF8002000F008F808B1012401E000F040
:102E30002FF8204610BD000070B50446002511484B
:102E40000068D8B10F4800684FF47A71B1FBF0F018
:102E50000D490968B1FBF0F6304600F02BFF58B978
:102E6000102C07D200222146501E00F047F80748D8
:102E7000046004E0012502E0012500E00125284668
:102E800070BD000020000020240000201C00002055
:102E900008B500BF0E48006E40F001000C490866FE
:102EA0000846006E00F00100009000BF00BF00BFA8
:102EB0000846806D40F0805088650846806D00F0BF
:102EC0008050009000BF00BF00F0F6F808BD000081
:102ED000001002400146084600280DDB00BF00BF7D
:102EE00000F01F0301229A4043099B0003F1E023F5
:102EF000C3F8002100BF00BF00BF70472DE9F05F9D
:102F000080460D46164603F08DFC074639462A4694
:102F1000334601F00700C0F1070ABAF1040F02D9E5
:102F20004FF0040A01E0C0F1070AD14600F1040A9B
:102F3000BAF1070F02D24FF0000A01E0A0F1030A34
:102F4000D4464FF0010A0AFA09FAAAF1010A0AEA7C
:102F5000020A0AFA0CFA4FF0010B0BFA0CFBABF168
:102F6000010B0BEA030B4AEA0B042146404603F02F
:102F700061FCBDE8F09F000000BF00F00702064BB7
:102F800019684FF6FF031940044B0B4343EA022133
:102F9000014B196000BF70470CED00E00000FA051E
:102FA00002468ABB4148006800F4C060B0F5806FFB
:102FB0002BD13E488030006820F480703B4BC3F832
:102FC00080001846006820F4C06040F4007018606B
:102FD0003748006832235843364BB0FBF3F0411CAE
:102FE00000E0491E3148406900F48060B0F5806F10
:102FF00001D10029F5D12D48406900F48060B0F579
:10300000806F51D10320704708E028488030006865
:1030100020F48070254BC3F8800045E0B2F5007FB6
:103020003AD12248006800F4C060B0F5806F2AD120
:103030001E488030006840F480701C4BC3F880004C
:103040001846006820F4C06040F40070186018480A
:10305000006832235843174BB0FBF3F0411C00E0EB
:10306000491E1248406900F48060B0F5806F01D1BC
:103070000029F5D10D48406900F48060B0F5806FFB
:1030800012D10320BFE709488030006840F4807007
:10309000064BC3F8800007E00448006820F4C060D5
:1030A00040F48060014B18600020ACE700700040E5
:1030B0002400002040420F000348806840F4804014
:1030C0000149886070470000007000402DE9F84316
:1030D00004460027B846206800F40020B0F5002F11
:1030E00073D1B946D348806D00F0805078B900BFE5
:1030F000D048806D40F08050CE4988650846806D8C
:1031000000F08050009000BF00BF4FF00109CA4896
:10311000006840F48070C8490860FFF76BFE0646FF
:1031200006E0FFF767FE801B022801D9032705E0B0
:10313000C148006800F480700028F2D000BF002F62
:1031400046D1BC489030006800F44075CDB1206C89
:10315000A84216D0B7489030006820F44075B548B2
:10316000D0F8900040F48030B249C1F89000084691
:10317000D0F8900020F48030C1F890000846C0F8E4
:10318000905005F00100A0B1FFF734FE064608E0BC
:10319000FFF730FE801B41F28831884201D90327B6
:1031A00006E0A4489030006800F002000028EFD04C
:1031B00000BF5FB99F489030006820F44070216CD8
:1031C00008439C49C1F8900003E00CE0B84600E0D9
:1031D000B846B9F1010F05D19648806D20F08050B6
:1031E0009449886500BF207800F0010048B19148FB
:1031F0008830006820F00300616808438D49C1F8F9
:103200008800207800F00200022809D1894888301F
:10321000006820F00C00A16808438649C1F88800C6
:10322000207800F00400042809D182488830006822
:1032300020F03000E16808437E49C1F8880020781A
:1032400000F00800082809D17A488830006820F08A
:10325000C000216908437749C1F88800207800F050
:103260002000202809D173488830006820F440608D
:10327000616908436F49C1F88800207800F0400078
:10328000402809D16B488830006820F44050A1697B
:1032900008436849C1F88800207800F08000802841
:1032A00009D164488830006820F44040E16908434F
:1032B0006049C1F88800208800F48070B0F5807FF4
:1032C00009D15C488830006820F44030216A084306
:1032D0005849C1F88800208800F40070B0F5007FDC
:1032E00009D154488830006820F44020616A0843BE
:1032F0005049C1F88800208800F48060B0F5806FE4
:1033000013D14C488830006820F44010A16A08436B
:10331000484988310860A06AB0F5801F05D145484A
:10332000C06840F480104349C860208800F4006001
:10333000B0F5006F13D13F488830006820F440009A
:10334000E16A08433B4988310860E06AB0F5800FC4
:1033500005D13848C06840F480103649C8602088DC
:1033600000F48050B0F5805F13D132488830006897
:1033700020F04070216B08432E4988310860206B93
:10338000B0F1807F05D12B48C06840F480102949F6
:10339000C860208800F40050B0F5005F13D12548C4
:1033A0008830006820F04060616B08432149883113
:1033B0000860606BB0F1006F05D11E48C06840F432
:1033C00080101C49C860208800F48040B0F5804F10
:1033D00013D118488830006820F04060A16B084382
:1033E000144988310860A06BB0F1006F05D1114815
:1033F000C06840F480100F49C860208800F4004085
:10340000B0F5004F13D10B488830006820F04050D1
:10341000E16B0843074988310860E06BB0F1805FD9
:1034200005D10448C06840F480300249C860404675
:10343000BDE8F88300100240007000402DE9F04123
:1034400004460D464FF0000814B90120BDE8F08194
:103450007D48006800F00F00A8420ED27A4800684C
:1034600020F00F002843784908600846006800F003
:103470000F00A84201D00120E8E7207800F0010009
:10348000002864D06068032823D17048006800F0E9
:10349000007008B90120D9E702F0A2F906466C488D
:1034A000864237D96948806800F0F00030B1207852
:1034B00000F0020002282DD1A06858BB6348806844
:1034C00020F0F00040F08000604988604FF08008F4
:1034D00020E06068022806D15C48006800F40030F3
:1034E00040B90120B2E75948006800F4806008B98B
:1034F0000120ABE700F0DEF806465548864209D9C0
:103500005248806820F0F00040F080004F49886009
:103510004FF080084D48806820F003006168084340
:103520004A498860FFF766FC074608E0FFF762FC3F
:10353000C01B41F28831884201D9032086E7434805
:10354000806800F00C006168B0EB810FEED120784C
:1035500000F00200022820D1207800F004000428A6
:1035600005D13A48806840F4E060384988602078A6
:1035700000F00800082807D13448806820F4605023
:1035800040F4E060314988603048806820F0F00005
:10359000A16808432D49886008E0B8F1800F05D183
:1035A0002A48806820F0F000284988602648006892
:1035B00000F00F00A84219D92348006820F00F003E
:1035C000284321490860FFF715FC074608E0FFF78C
:1035D00011FCC01B41F28831884201D9032035E734
:1035E0001948006800F00F00A842F0D1207800F0E0
:1035F0000400042807D11548806820F4E060E168E1
:10360000084312498860207800F00800082808D193
:103610000E48806820F46050216940EAC1000B49DF
:10362000886000F047F809498968C1F30311094A25
:10363000515C01F01F01C840074908600748006855
:10364000FFF7FAFB02E700000020024000100240F2
:1036500000B4C404E86A0008240000201C00002014
:1036600001480068704700002400002000B5FFF703
:10367000F7FF05498968C1F30221044A515C01F052
:103680001F01C84000BD000000100240F86A000899
:1036900000B5FFF7E5FF05498968C1F3C221044A77
:1036A000515C01F01F01C84000BD00000010024045
:1036B000F86A000870B5224DAD6805F00C05042DC0
:1036C00001D120483AE01E4DAD6805F00C05082DEB
:1036D00001D11D4832E01A4DAD6805F00C050C2DE6
:1036E0002BD1174DED6805F00304154DED68C5F3BA
:1036F00003156A1C022C0CD0032C09D1124DB5FB0A
:10370000F2F50F4EF668C6F3062605FB06F10AE051
:1037100000BF0C4DB5FBF2F5094EF668C6F3062660
:1037200005FB06F100BF00BF054DED68C5F341651F
:103730006D1C6B00B1FBF3F000E0002070BD0000D9
:10374000001002400024F40000366E012DE9F84319
:10375000044614B90120BDE8F883207800F0010088
:10376000002865D0FC48806800F00C07FA48C06863
:1037700000F003060C2F01D1032E01D0082F0AD12F
:10378000F548006800F40030002851D06068002837
:103790004ED10120DFE700BF6068B0F5803F06D161
:1037A000ED48006840F48030EB4908601AE060683A
:1037B000B0F5A02F0BD1E848006840F48020E6491E
:1037C00008600846006840F4803008600AE0E2487B
:1037D000006820F48030E04908600846006820F462
:1037E0008020086000BF606888B1FFF703FB0546D2
:1037F00006E0FFF7FFFA401B642801D90320AAE77F
:10380000D548006800F400300028F2D010E0FFF73F
:10381000F1FA054606E0FFF7EDFA401B642801D9EE
:10382000032098E7CC48006800F400300028F2D16B
:10383000207800F00200022860D1C748806800F0BC
:103840000C07C548C06800F003060C2F01D1022EFA
:1038500001D0042F18D1C048006800F4806018B16E
:10386000E06808B9012076E7BB48406820F0FE40D8
:10387000217C40EA0160B8494860B8480068FFF719
:10388000DBFA18B3012066E7E06800B3B2480068CD
:1038900040F48070B0490860FFF7ACFA054606E0D6
:1038A000FFF7A8FA401B022801D9032053E7AA48D2
:1038B000006800F480600028F2D0A748406820F03B
:1038C000FE40217C40EA0160A349486016E0A2481E
:1038D000006820F48070A0490860FFF78BFA054665
:1038E00006E0FFF787FA401B022801D9032032E7E0
:1038F0009948006800F480600028F2D1207800F038
:103900000800082836D16069D0B193489430006827
:1039100040F001009049C1F89400FFF76BFA0546AA
:1039200006E0FFF767FA401B022801D9032012E7DF
:1039300089489430006800F002000028F1D019E0B6
:1039400085489430006820F001008349C1F8940054
:10395000FFF750FA054606E0FFF74CFA401B022835
:1039600001D90320F7E67C489430006800F002009B
:103970000028F1D1207800F00400042872D14FF023
:1039800000087548806D012121EA107078B100BFF0
:103990007148806D40F080506F4988650846806DA1
:1039A00000F08050009000BF00BF4FF001086C484D
:1039B000006800F48070B0B96948006840F4807015
:1039C00067490860FFF716FA054606E0FFF712FAA6
:1039D000401B022801D90320BDE66148006800F4BD
:1039E00080700028F2D000BFA068012808D15A4892
:1039F0009030006840F001005749C1F8900021E084
:103A0000A06805280FD154489030006840F00400A9
:103A10005149C1F890000846D0F8900040F00100EC
:103A2000C1F890000EE04C489030006820F0010092
:103A30004949C1F890000846D0F8900020F00400F1
:103A4000C1F8900000BFA068A8B1FFF7D3F9054600
:103A500009E0FFF7CFF9401B41F28831884202D9D3
:103A6000032078E625E03C489030006800F0020032
:103A70000028EED013E0FFF7BDF9054608E0FFF798
:103A8000B9F9401B41F28831884201D9032062E62E
:103A900031489030006800F002000028EFD1B8F102
:103AA000010F05D12C48806D20F080502A4988658F
:103AB00000BF207800F02000202836D1A069D0B1C6
:103AC00025489830006840F001002349C1F898006B
:103AD000FFF790F9054606E0FFF78CF9401B022836
:103AE00001D9032037E61C489830006800F0020036
:103AF0000028F1D019E018489830006820F0010043
:103B00001549C1F89800FFF775F9054606E0FFF77B
:103B100071F9401B022801D903201CE60E48983099
:103B2000006800F002000028F1D1E069002860D0B0
:103B30000948806800F00C000C287FD0E06902285A
:103B400058D10548006820F0807003490860FFF7ED
:103B500051F905460DE00000001002401C00002055
:103B600000700040FFF746F9401B022801D90320EE
:103B7000F1E54D48006800F000700028F2D1D4E96A
:103B80000810401E41EA0011A06A41EA0021208E7F
:103B90000122C2EB500041EA40513420005DC2EBEB
:103BA000500041EA40612C20005D41EAC0603E497E
:103BB000C9683E4A114008433B49C860084600684E
:103BC00040F0807008600846C06840F08070C860AF
:103BD000FFF710F9054606E0FFF70CF9401B022835
:103BE00001D90320B7E53048006800F000700028D4
:103BF000F2D056E02C48006820F080702A49086016
:103C00000846C06820F00300C8600846C06828491C
:103C100008402549C860FFF7EDF8054607E00DE0CC
:103C2000FFF7E8F8401B022801D9032093E51E485E
:103C3000006800F000700028F2D132E0E06901284D
:103C400000D188E51848C66806F00301206A814261
:103C500025D106F0F001606A401EB1EB001F1ED1B5
:103C600006F4FE41A06AB1EB002F18D106F07841AE
:103C70002C20005DB1EBC06F11D106F4C001208E85
:103C80000122C2EB5000B1EB405F08D106F0C061E9
:103C90003420005DC2EB5000B1EB406F01D0012039
:103CA00059E5002057E50000001002400C809F01FC
:103CB000FFFFEEFE70B504462546681EB0F1807F1A
:103CC00001D301200FE0681E4FF0E02148610F2171
:103CD0004FF0FF3002F0AEFD00204FF0E021886190
:103CE00007200861002070BD10B50346002200BF08
:103CF00093F83C00012801D1022010BD012083F877
:103D00003C0000BF22F0FF00CC6840EA040222F42D
:103D100040708C6840EA040222F480604C6840EAFB
:103D2000040222F400600C6840EA040222F480508D
:103D30000C6940EA040222F400504C6940EA040293
:103D400022F480400C6B40EA040222F470200C8BB9
:103D500040EA04421C4C1868A04203D01B4C18686F
:103D6000A04204D122F08050CC6940EA0402164CF3
:103D70001868A04203D0154C1868A0421BD122F449
:103D800070000C8D40EA045222F080700C6A40EA08
:103D9000040222F000704C6A40EA04020A4C1868DF
:103DA000A04203D0094C1868A04204D122F0005070
:103DB000CC6A40EA04021868426400BF002083F81D
:103DC0003C0000BF00BF98E7002C014000340140D8
:103DD00030B502460B4600BF92F83C00012801D1E5
:103DE000022030BD012082F83C0000BF022082F892
:103DF0003D0010684168106884681D4D1068A84235
:103E000003D01C4D1068A84203D121F470015868FA
:103E10000143194801401868014310684160144D7E
:103E20001068A84213D01068B0F1804F0FD0134D26
:103E30001068A8420BD0124D1068A84207D00D4D53
:103E40001068A84203D00F4D1068A84205D124F095
:103E500080049868044310688460012082F83D0063
:103E600000BF002082F83C0000BF00BFB9E700009F
:103E7000002C0140003401408FFFFFFD0004004092
:103E8000000800400040014070B504460D4615B9D9
:103E900094F844000BE0042D02D14520005D06E0BB
:103EA000082D02D14620005D01E04720005D012879
:103EB00001D0012070BD1DB9022084F844000EE03D
:103EC000042D03D102214520015508E0082D03D11E
:103ED00002214620015502E002214720015504221B
:103EE0002946206801F0B1FD2068406C40F4004094
:103EF0002168486418492068884213D02068B0F1CE
:103F0000804F0FD01549206888420BD01449206893
:103F1000884207D013492068884203D0124920689C
:103F2000884210D120688068104900EA0106062EF8
:103F30000FD0B6F5803F0CD02068006840F001003B
:103F40002168086005E02068006840F001002168F1
:103F500008600020AEE70000002C01400004004093
:103F6000000800400034014000400140070001000B
:103F700070B504460D4600222946206801F065FD13
:103F800000BF2068006A41F21111084050B9206852
:103F9000006A8900084028B92068406C20F400407D
:103FA0002168486400BF00BF2068006A41F2111117
:103FB000084050B92068006A8900084028B9206884
:103FC000006820F001002168086000BF1DB90120D1
:103FD00084F844000EE0042D03D101214520015551
:103FE00008E0082D03D101214620015502E00121FE
:103FF00047200155002070BD10B504460CB90120C2
:1040000010BD94F83D0028B9002084F83C002046FB
:1040100000F02AF8022084F83D00211D206801F0FC
:10402000A5FC012084F8480000BF84F83E0001216F
:104030003F200155402001554120015542200155A6
:104040004320015500BF00BF012084F844004520F3
:104050000155462001554720015500BF012084F835
:104060003D000020CCE7000010B586B004461421C6
:1040700001A8FCF705F928492068884238D100BF1B
:104080002648006E40F40060244908660846006E29
:1040900000F40060009000BF00BF00BF0846C06C85
:1040A00040F00100C8640846C06C00F001000090B8
:1040B00000BF00BF4020019012200290002003901A
:1040C00004900620059001A94FF09040FEF7A0FD56
:1040D0004FF40060019012200290002003900490A1
:1040E0000C20059001A94FF09040FEF791FD11E0E2
:1040F0000B49206888420DD100BF0848806D40F010
:104100000400064988650846806D00F004000090B0
:1041100000BF00BF06B010BD002C014000100240DF
:1041200000080040014691F83D00012801D001201F
:104130007047022081F83D00184B0868984213D060
:104140000868B0F1804F0FD0154B086898420BD02B
:10415000144B0868984207D0134B0868984203D064
:10416000124B0868984210D108688068104B00EA2A
:104170000302062A0FD0B2F5803F0CD00868006811
:1041800040F001000B68186005E00868006840F026
:1041900001000B6818600020CAE70000002C0140F5
:1041A000000400400008004000340140004001408D
:1041B000070001002DE9F04104460D4600BF94F8C8
:1041C0003C00012802D10220BDE8F081012084F8E2
:1041D0003C0000BF022084F83D00206886683F480C
:1041E000064026F47F46206886602868702824D020
:1041F0000CDC00F00F01002964D10011072861D206
:10420000DFE800F05354555649353F00344A811ACF
:1042100090424FD009DCB0F5805F0DD0B0F5005F63
:1042200018D0B0F1101F4DD143E0102943D0202900
:1042300042D0502946D140E045E0D5E902136A68F2
:10424000206801F013FC2068866846F07706206835
:10425000866038E0D5E902136A68206801F006FC40
:104260002068806840F48040216888602BE0EA681C
:104270006968206801F0E6FD5021206801F002FC29
:1042800021E0EA686968206801F0EFFD602120689C
:1042900001F0F8FB17E0EA686968206801F0D2FDD8
:1042A0004021206801F0EEFB0DE000BF00BF00BF21
:1042B00000BF00BF00BF00BF00BF2968206801F039
:1042C000E1FB00E000BF00BF012084F83D0000BF1B
:1042D000002084F83C0000BF00BF75E788FFCEFFD8
:1042E000200010002DE9F04104460D4614B90120CC
:1042F000BDE8F08194F83D0028B9002084F83C0026
:10430000204600F055F8022084F83D0020688068BF
:104310002649084021688860211D206801F026FB9D
:104320002068D0F80880206886692068076A2868B5
:1043300040EA080840F203308643A969A86840EAC9
:104340000120064340F60C4086434FF2F0008643BE
:10435000E969E86840EA0120064328690001296A02
:1043600040EA0130064327F0220727F088076969F1
:10437000686840EA011007432068C0F80880206898
:10438000866120680762012084F8480084F83E00B6
:1043900001213F200155012084F8440045200155AA
:1043A000012084F83D000020A2E70000F8BFFEFFD6
:1043B00010B586B00446142101A8FBF761FF206800
:1043C000B0F1804F43D100BF2248806D40F0010022
:1043D000204988650846806D00F00100009000BF0C
:1043E00000BF00BF0846C06C40F00100C86408462A
:1043F000C06C00F00100009000BF00BF00BF084685
:10440000C06C40F00200C8640846C06C00F00200B6
:10441000009000BF00BF4FF40040019002200290C6
:104420000020039004900120059001A94FF09040D6
:10443000FEF7EEFB0820019002200290002003907E
:1044400004900120059001A90348FEF7E1FB06B0A6
:1044500010BD000000100240000400482DE9F043A8
:1044600004460D4694F83E603F20075D94F8448072
:10447000452010F804906DB9012E02D1B8F1010F5A
:1044800002D00120BDE8F083022084F83E0084F8C9
:10449000440025E0042D0CD1012F02D1B9F1010F08
:1044A00001D00120EEE702213F20015545200155B2
:1044B00016E0012E07D1012F05D1B8F1010F02D16D
:1044C000B9F1010F01D00120DCE7022084F83E00A1
:1044D00002213F200155022084F844004520015567
:1044E00015B1042D0CD105E001220021206801F056
:1044F0009BFA10E001220421206801F095FA0AE0FD
:1045000001220021206801F08FFA01220421206895
:1045100001F08AFA00BF00BF2068006840F0010087
:10452000216808600020ADE710B586B0044614216C
:1045300001A8FBF7A5FE1E492068884236D100BFBE
:104540001C48C06C40F001001A49C8640846C06CA1
:1045500000F00100009000BF00BF00BF0846C06C23
:1045600040F00200C8640846C06C00F002000090F1
:1045700000BF00BF4FF4F0600190022002900020C5
:10458000039004900620059001A94FF09040FEF79B
:104590003FFB032001900220029000200390049032
:1045A0000620059001A90448FEF732FB06B010BDB5
:1045B000002C0140001002400004004870B5044681
:1045C0000D46164600BF94F83C00012801D1022098
:1045D00070BD012084F83C0000BF0C2E51D005DCDA
:1045E0004EB1042E1ED0082E7AD133E0102E60D0AA
:1045F000142EF9D175E02946206801F04FFA2068A1
:10460000806940F00800216888612068806920F096
:10461000040021688861206880692969084321684D
:10462000886177E02946206801F08EFA2068806969
:1046300040F40060216888612068806920F480600F
:104640002168886120688069296940EA0120216821
:1046500088615FE02946206801F0D0FA2068C069CF
:1046600040F008002168C8612068C06920F004009B
:104670002168C8612068C069296908432168C86148
:1046800048E02946206801F013FB2068C06940F427
:1046900000602168C8612068C06920F480602168DA
:1046A000C8612068C069296940EA01202168C861A1
:1046B00030E02946206801F055FB2068006D40F08D
:1046C0000800216808652068006D20F0040021685A
:1046D00008652068006D296908432168086519E0AC
:1046E00017E02946206801F075FB2068006D40F452
:1046F0000060216808652068006D20F480602168F2
:1047000008652068006D296940EA01202168086574
:1047100000E000BF00BF00BF002084F83C0000BFE5
:1047200000BF55E710B504460CB9012010BD94F840
:104730003D0028B9002084F83C00204600F029F80C
:10474000022084F83D00211D206801F00FF90120AE
:1047500084F8480000BF84F83E0001213F20015545
:10476000402001554120015542200155432001556B
:1047700000BF00BF012084F84400452001554620B9
:1047800001554720015500BF012084F83D0000205D
:10479000CCE7704770B504460D4615B994F83E0055
:1047A00015E0042D02D13F20005D10E0082D02D15C
:1047B0004020005D0BE00C2D02D14120005D06E0A1
:1047C000102D02D14220005D01E04320005D012850
:1047D00001D0012070BD1DB9022084F83E001AE00E
:1047E000042D03D102213F20015514E0082D03D1EF
:1047F0000221402001550EE00C2D03D10221412061
:10480000015508E0102D03D102214220015502E09C
:1048100002214320015501222946206801F004F9B4
:104820002749206888420FD02649206888420BD04B
:1048300025492068884207D024492068884203D04F
:1048400023492068884201D1012000E0002028B1DE
:104850002068406C40F40040216848641849206892
:10486000884213D02068B0F1804F0FD019492068DA
:1048700088420BD018492068884207D01149206827
:10488000884203D010492068884210D1206880688F
:10489000124900EA0106062E0FD0B6F5803F0CD073
:1048A0002068006840F001002168086005E0206889
:1048B000006840F001002168086000208AE70000DD
:1048C000002C014000340140004001400044014000
:1048D00000480140000400400008004007000100BB
:1048E00030B504460D4600222946206801F09CF8A8
:1048F0002F49206888420FD02E49206888420BD06B
:104900002D492068884207D02C492068884203D06E
:104910002B492068884201D1012000E0002090B19D
:1049200000BF2068006A41F21111084050B92068A8
:10493000006A8900084028B92068406C20F40040D3
:104940002168486400BF00BF2068006A41F211116D
:10495000084050B92068006A8900084028B92068DA
:10496000006820F001002168086000BF1DB9012027
:1049700084F83E001AE0042D03D101213F200155A7
:1049800014E0082D03D10121402001550EE00C2D2B
:1049900003D101214120015508E0102D03D101214F
:1049A0004220015502E0012143200155002030BD85
:1049B000002C01400034014000400140004401400F
:1049C00000480140014600BF91F87C00012801D158
:1049D00002207047012081F87C0000BF2420C1F82C
:1049E0008000086802680868006820F001000B6811
:1049F000186022F0005200204866086802602020FB
:104A0000C1F8800000BF002081F87C0000BF00BF1B
:104A1000DFE7704770B504460D4600BF94F87C0090
:104A2000012801D1022070BD012084F87C0000BF64
:104A30002420C4F88000206806682068006820F000
:104A40000100216808602068806820F060602843C9
:104A500021688860204601F01DFA20680660202049
:104A6000C4F8800000BF002084F87C0000BF00BFB5
:104A7000D9E770B504460D4600BF94F87C000128C4
:104A800001D1022070BD012084F87C0000BF2420E9
:104A9000C4F88000206806682068006820F00100E3
:104AA000216808602068806820F060402843216801
:104AB0008860204601F0EEF9206806602020C4F8E6
:104AC000800000BF002084F87C0000BF00BFD9E751
:104AD00070477047704700002DE9F0470446206892
:104AE000C569206806682068876840F60F0005EAF7
:104AF0000008B8F1000F0FD105F0200060B106F0FA
:104B0000200010B907F0805030B1E06E10B120469F
:104B1000E16E8847BDE8F087B8F1000F7ED06E489F
:104B2000384018B96D4830400028F7D005F0010032
:104B300058B106F4807040B1012021680862D4F8B1
:104B4000880040F00100C4F8880005F0020058B168
:104B500007F0010040B1022021680862D4F8880003
:104B600040F00400C4F8880005F0040058B107F0D4
:104B7000010040B1042021680862D4F8880040F0A8
:104B80000200C4F8880005F0080070B106F02000AB
:104B900010B95148384040B1082021680862D4F863
:104BA000880040F00800C4F8880005F4006060B197
:104BB00006F0806048B14FF4006021680862D4F8C4
:104BC000880040F02000C4F88800D4F8880000284D
:104BD00044D005F0200050B106F0200010B907F0D5
:104BE000805020B1E06E10B12046E16E8847D4F8C5
:104BF00088902068806800F04000402802D009F0CA
:104C0000280028B3204601F0BDFA2068806800F033
:104C10004000402818D12068806800E01FE020F0A4
:104C2000400021688860A06F50B12D48A16F886353
:104C3000A06FFDF725FE88B1A06F816B88470DE05E
:104C40002046FFF747FF09E02046FFF743FF05E056
:104C50002046FFF73FFF0020C4F888005AE705F41C
:104C6000801050B107F4800038B14FF480102168F3
:104C700008622046FFF72DFF4CE705F0800058B191
:104C800006F0800010B907F4000028B1206F10B1C1
:104C90002046216F88473DE705F0400030B106F01F
:104CA000400018B1204601F081FA33E705F4000016
:104CB00030B106F0804018B12046FFF709FF29E720
:104CC00005F0807030B106F0004018B12046FFF7C3
:104CD000A0FE1FE700BF1DE7010000102001000437
:104CE0007160000810B504460CB9012010BDA06920
:104CF00000B100E000BFD4F8800028B9002084F89B
:104D00007C00204600F02AF82420C4F880002068A7
:104D1000006820F0010021680860204601F068FA70
:104D2000012800D1E2E7A06A10B1204601F0EAF8BC
:104D30002068406820F490402168486020688068BE
:104D400020F02A00216888602068006840F0010097
:104D500021680860204601F051F9C7E710B586B018
:104D60000446142101A8FBF78BFA374920688842D2
:104D700067D100BF3548806D40F400303349886505
:104D80000846806D00F40030009000BF00BF00BFF7
:104D90000846C06C40F00100C8640846C06C00F0D2
:104DA0000100009000BF00BF0C2001900220029083
:104DB00000200390012004900720059001A94FF0E6
:104DC0009040FDF725FF2248224908601B204860DB
:104DD0001021204881600021C160802101610021F3
:104DE00041618161C1610162FDF714FE08B1FBF709
:104DF000F4FC00BF17486067846200BF1448143099
:104E0000154908601A204860002113488160C1607C
:104E100080210161002141618161C1610162FDF771
:104E2000F9FD08B1FBF7D9FC00BF0B48A06784620D
:104E300000BF002203212620FEF760F82620FEF79F
:104E400049F806B010BD00000044004000100240C8
:104E50000800024040030020A003002070B5044673
:104E60000E461546D4F88400202853D106B10DB95A
:104E7000012070BD00BF94F87C00012801D1022000
:104E8000F7E7012084F87C0000BF44F8586FA58044
:104E9000002020632220E062206A583C08B31E48AC
:104EA000A16FC8621D48A16F08631D48A16F4863C8
:104EB0000020A16F8863236803F124012B46A26DB3
:104EC000A06FFDF70FFE60B11020C4F8880000BF8E
:104ED000002084F87C0000BF2020C4F8800001205E
:104EE000C7E700BF002084F87C0000BF206800688E
:104EF00040F48070216808602068806840F00100FC
:104F0000216888602068806840F0400021688860DF
:104F10000020AEE70220ACE7E76000082F61000840
:104F2000896000087047704770B504460E46154604
:104F3000D4F8800020284BD106B10DB9012070BDF6
:104F400000BF94F87C00012801D10220F7E701207E
:104F500084F87C0000BF44F8506FA580E5800020F5
:104F6000A06321202063606A503C08B31948616F38
:104F7000C8621948616F08631848616F4863002070
:104F8000616F8863236803F128022B46216D606FEF
:104F9000FDF7A8FD60B11020C4F8880000BF002014
:104FA00084F87C0000BF2020C4F880000120C6E700
:104FB00040202168086200BF002084F87C0000BF08
:104FC0002068806840F08000216888600020B6E793
:104FD0000220B4E73D61000875610008896000089F
:104FE0007047704700BFFEE78168024A1140491CC4
:104FF00081607047C0FFFF7F0146886800F01F0096
:105000007047024602F1600000EB8103186800F06F
:10501000F8407047024602F1600000EB8103186817
:1050200000F0F84070470146C86800F00070704713
:1050300001468868C0F3C000704701468868C0F325
:10504000C00070478168034A114041F00801816047
:1050500070470000C0FFFF7F01468868C0F3400032
:1050600070470146886800F0010070470146886873
:1050700000F00100704701468868C0F30070704777
:1050800001468868C0F38000704701468868C0F315
:10509000800070470146C86800F4406008B90120EC
:1050A00070470020FCE770B500F11404C1F34065BF
:1050B00004EB85031C68C1F304560725B540AC43D7
:1050C000C1F3045502FA05F52C431C6070BD70B5A0
:1050D00000F11404C1F3406504EB85031C68C1F3BF
:1050E00004560725B540AC43C1F3045502FA05F553
:1050F0002C431C6070BD826822F0E0720A4382601B
:105100007047826822F0E0720A438260704710B5EF
:1051100000F1600404EB81031C6824F00044144394
:105120001C6010BD10B500F1600404EB81031C6825
:1051300024F0004414431C6010BD426922F0004278
:105140000A4342617047426922F000420A434261C9
:105150007047000000B59BB00020189019901A907D
:10516000202110A8FBF78CF83C2101A8FBF788F858
:105170004FF0A040364908604FF4403048600021AD
:1051800033488160C1600161012141610421816175
:1051900000210177417701210162002180F824106C
:1051A000C162016380F83810C16380F84010FDF7D8
:1051B000E5F808B1FBF711FB0020189018A9244866
:1051C000FCF73AFC08B1FBF708FB224810900620D8
:1051D0001190002012907F20139004201490002042
:1051E000159010A91A48FCF7ABFC08B1FBF7F5FACB
:1051F0001848019009200290022003907F2004901B
:1052000004200590002006900220099000208DF8CF
:1052100028008DF829008DF82A0080200B900C9032
:1052200000208DF8340001A90948FBF7B5FD08B14D
:10523000FBF7D3FA0848019040F20F10029001A941
:105240000348FBF7A9FD08B1FBF7C7FA1BB000BD87
:10525000D4000020020030040400600800B597B0BC
:1052600020210FA8FBF70CF83C216846FBF708F853
:105270002C482D4908604FF44030486000212A48EE
:105280008160C16001614161042181610021017778
:10529000417701210162002180F82410C16201637D
:1052A00080F83810C16380F84010FDF767F808B146
:1052B000FBF793FA1D480F900620109000201190E4
:1052C0007F20129004201390002014900FA91648FC
:1052D000FCF736FC08B1FBF780FA1448009009206F
:1052E0000190022002907F2003900420049000206F
:1052F00005900120089000208DF824008DF82500ED
:105300008DF8260080200A900B9000208DF8300048
:1053100069460548FBF740FD08B1FBF75EFA17B098
:1053200000BD000000010050400100208000501D21
:1053300008B508200549896C0143044A9164114667
:10534000896C0140009100BF00BF08BD0010024001
:1053500010B50F480F4908600120087101210D4860
:10536000417148F2050181600821C1604FF6FF716B
:10537000016120214161802181610120054908628C
:105380000846FDF723FA08B1FBF727FA10BD000025
:1053900000300240AC01002008B500BF1548806C09
:1053A00040F00400134988640846806C00F0040053
:1053B000009000BF00BF00BF0846806C40F00100B5
:1053C00088640846806C00F00100009000BF00BFB8
:1053D000002211460B20FDF791FD0B20FDF77AFD11
:1053E000002211460C20FDF789FD0C20FDF772FD0F
:1053F00008BD00000010024000B587B0142102A8CB
:10540000FAF73EFF00BF3E48C06C40F020003C4928
:10541000C8640846C06C00F02000019000BF00BFC7
:1054200000BF0846C06C40F00400C8640846C06C69
:1054300000F00400019000BF00BF00BF0846C06C30
:1054400040F00100C8640846C06C00F00100019003
:1054500000BF00BF00BF0846C06C40F00200C86437
:105460000846C06C00F00200019000BF00BF00229F
:1054700020214FF09040FDF7B7FC00224FF400715F
:105480002048FDF7B1FC002280211F48FDF7ACFC4D
:10549000202002900120039000200490059002A992
:1054A0004FF09040FDF7B4FB4FF480600290174836
:1054B00003900020049002A91348FDF7A9FB4FF4C4
:1054C000007002900120039000200490059002A932
:1054D0000C48FDF79DFB80200290012003900020E6
:1054E0000490059002A90848FDF792FB00220221D2
:1054F0002820FDF703FD2820FDF7ECFC07B000BDD8
:10550000001002400008004800040048000011108C
:1055100000B59BB000201790189019901A90149025
:10552000159016901C210DA8FAF7AAFE34216846A2
:10553000FAF7A6FE45484649086001204860202148
:105540004348816041F26701C1600021016101218E
:10555000416100218161FEF74FFD08B1FBF73DF984
:105560004FF48050179017A93948FEF723FE08B171
:10557000FBF733F93648FFF7D5F808B1FBF72DF9FB
:105580007020149000201590169014A93048FEF752
:105590001FFC08B1FBF721F960200D9000200E9050
:1055A0000F90109011901290139000220DA928488E
:1055B000FFF704F808B1FBF710F900200E90042261
:1055C0000DA92348FEF7FAFF08B1FBF706F9002002
:1055D0000E9008220DA91E48FEF7F0FF08B1FBF758
:1055E000FCF870200D9041F266000E9000201090A3
:1055F0000C220DA91648FEF7E1FF08B1FBF7EDF804
:105600004FF4006000904010019000200290442070
:105610000390002004904FF4005005900F20069056
:105620000020079008904FF00070099000200A9029
:105630000B900C9069460648FEF756FB08B1FBF745
:10564000CCF80348FEF770FF1BB000BD002C0140F2
:10565000D001002000B58DB0242104A8FAF710FE77
:1056600000200190029003904FF08040184908609C
:1056700000204860002116488160491EC160002159
:1056800001618161032004900020059001200690B3
:10569000002007900F2008900020099001200A9018
:1056A00000200B900F200C9004A90948FEF71AFE69
:1056B00008B1FBF792F800200190039001A904487B
:1056C000FEF786FB08B1FBF788F80DB000BD0000BF
:1056D0001C02002000B587B00020039004900590C4
:1056E000069000900190029014481549086000202F
:1056F00048600021124881604FF6FF71C1600021AF
:1057000001618161FEF778FC08B1FBF766F84FF4A0
:105710008050039003A90A48FEF74CFD08B1FBF73F
:105720005CF800200090029069460548FEF750FBA7
:1057300008B1FBF752F807B000BD000000080040B8
:105740006802002010B517481749086017484860DC
:10575000002115488160C16001610C214161002177
:105760008161C1610162416200200F49886208467F
:10577000FFF7B8FA08B1FBF730F800210A48FFF745
:1057800078F908B1FBF729F800210748FFF742F93B
:1057900008B1FBF722F80448FFF714F908B1FBF74A
:1057A0001CF810BD00440040B402002000127A0032
:1057B00000BFFEE7704700009FED060A064880ED37
:1057C000010A9FED040A80ED020A00200249487098
:1057D00088707047000000006800002070470000DB
:1057E00070B5164DED6805F00304144DED68C5F372
:1057F00003156B1C022C0CD0032C09D1104DB5FBEA
:10580000F3F50E4EF668C6F3062605FB06F10AE030
:1058100000BF0C4DB5FBF3F5084EF668C6F306263F
:1058200005FB06F100BF00BF044DED68C5F34165FF
:105830006D1C6A00B1FBF2F070BD00000010024068
:1058400000366E010024F4007047000010B50021FE
:105850000B48FEF79FFF04210948FEF79BFF082134
:105860000748FEF797FF00210548FEF70DFB0421CE
:105870000348FEF709FB08210148FEF705FB10BDB0
:10588000D001002010B500210B48FFF729F80421B2
:105890000948FFF725F808210748FFF721F80021FC
:1058A0000548FEF765FB04210348FEF761FB08216C
:1058B0000148FEF75DFB10BDD001002010B5FDF7DB
:1058C0009FFA10BD00B5A5B0382117A8FAF7D8FC8B
:1058D000142112A8FAF7D4FC442101A8FAF7D0FC4D
:1058E0000020FDF75DFB01201790000418900220B6
:1058F0001E9003211F91042117A841623821816263
:105900000221C16201634163FDF720FF08B1FAF78C
:1059100064FF0F2012900320139000201490159024
:105920001690042112A8FDF789FD08B1FAF755FF7A
:1059300048F202000190002003904FF000501090B8
:1059400001A8FDF7C3FB08B1FAF747FF25B000BD7A
:105950000548006840F47000034908604FF000609B
:10596000014980390860704788ED00E010B5026891
:10597000264B98420BD0B0F1804F08D0244B984270
:1059800005D0244B984202D0234B984203D122F0F9
:1059900070024B681A431D4B984214D0B0F1804FEF
:1059A00011D01B4B98420ED01A4B98420BD01A4B79
:1059B000984208D0194B984205D0194B984202D012
:1059C000184B984203D122F44072CB681A4322F05C
:1059D00080034C6943EA040202608B68C3620B686F
:1059E00083620A4B98420BD00B4B984208D00B4B6A
:1059F000984205D00A4B984202D00A4B984201D1F6
:105A00000B6903630123436110BD0000002C0140BA
:105A10000004004000080040003401400040014004
:105A2000004401400048014030B501F01F05012449
:105A300004FA05F3046A9C430462046A01F01F053A
:105A400002FA05F52C43046230BD30B501F01F05A4
:105A5000042404FA05F3046A9C430462046A01F016
:105A60001F0502FA05F52C43046230BD30B50C4623
:105A7000816821F47F4142EA03252543294381605F
:105A800030BD00000A468168034B194042F007030D
:105A900019438160704700008FFFCFFF30B5056A62
:105AA00025F001050562026A43688469204D2C4097
:105AB00024F003040D682C4322F002028D682A436F
:105AC0001C4DA84200D10FE01B4DA84200D10BE0B5
:105AD0001A4DA84200D107E0194DA84200D103E0B9
