:020000040800F2
:100000000807002001010008E13800084934000811
:10001000DD3800085D020008B9410008000000005A
:10002000000000000000000000000000253900086A
:10003000AD02000800000000F938000899390008F6
:100040001B0100081B0100081B0100081B01000820
:100050001B0100081B0100081B0100081B01000810
:100060001B0100081B0100081B0100081B01000800
:100070001B0100081B0100081B0100081B010008F0
:1000800061020008710200086D0100081B010008F0
:100090001B0100081B0100081B0100081B010008D0
:1000A000253A00081B0100081B0100081B0100087D
:1000B0001B0100081B0100081B0100081B010008B0
:1000C0001B0100081B0100081B0100081B010008A0
:1000D0001B0100081B010008294000081B01000843
:1000E000AF0200081B0100081B010008DFF80CD05C
:1000F00000F02AF8004800478D4200080807002059
:100100000648804706480047FEE7FEE7FEE7FEE7B1
:10011000FEE7FEE7FEE7FEE7FEE7FEE7213A00081E
:10012000ED000008D2B201E000F8012B491EFBD21D
:1001300070470022F6E710B513460A4604461946F2
:10014000FFF7F0FF204610BD064C074D06E0E068C3
:1001500040F0010394E8070098471034AC42F6D30E
:10016000FFF7C8FFF04800081049000810B5034821
:1001700000F063FE024800F060FE10BD9400002015
:10018000C400002070B5044600252068806800F097
:100190000100F0B12068806820F0010021688860CB
:1001A00001F08EFB05460EE001F08AFB401B0228A1
:1001B00009D9A06A40F01000A062E06A40F0010096
:1001C000E062012070BD2068806800F00100002816
:1001D000EAD10020F6E7000038B5044600250020EB
:1001E00000902068806800F0010080BB2068806873
:1001F00040F0010021688860164800681649B0FB8D
:10020000F1F0009002E00098401E00900098002855
:10021000F9D101F055FB054613E001F051FB401BFD
:1002200002280ED9A06A40F01000A062E06A40F0F7
:100230000100E06200BF002084F8240000BF01201C
:1002400038BD2068806800F001000028E5D000205B
:10025000F6E700002400002040420F0000BFFEE748
:1002600010B5024801F010F810BD00005002002047
:1002700010B5024801F008F810BD00000C02002083
:1002800030B590F840500124AC40C56B6C600468F8
:1002900063604468102C04D10468A2600468E160C3
:1002A00003E00468A1600468E26030BD704710B5E7
:1002B0004FF4806001F058F94FF4006001F054F9F8
:1002C00010BD7047F0B5059C45F2555545432D13BB
:1002D0002DB26E008D18AD002DB245F255577D43FD
:1002E000AD132DB2751BAD101D808D1A6D002DB292
:1002F00044F6E7167543AD132DB22580F0BD00001E
:100300000020034909680860024800210160704725
:10031000E8460008280000202DE9F04F88B0D448B6
:10032000C088C00240F69141B0FBF1F04FF6FF717A
:1003300001EA4007B7F5804F01DC012000E0002012
:100340008246B7F5404F01DB012000E0002001901C
:10035000B7F5004F0CDCBAF1000F04D0C7F58040B0
:100360001FFA80F90FE0A7F580401FFA80F90AE034
:10037000019820B1A7F540401FFA80F903E0C7F5C6
:1003800040401FFA80F906AB4FF4807200214846C6
:1003900004F070F80790B74ADDE9061003F068FF33
:1003A0000446BAF1000F03D1019808B9604204B2C3
:1003B00004A8AF4B0090B3F90420B3F90210B3F9CD
:1003C000000005ABFFF77EFFB7F5004F01DC012011
:1003D00000E000208246BAF1000F02D1A7F50040EC
:1003E00087B2B7F5804F02DDC7F5004087B206AB94
:1003F0004FF480720021384604F03CF807909D4A83
:10040000DDE9061003F034FF0546BAF1000F01D113
:10041000684205B2BDF9140060434113BDF91000F4
:10042000684301EB603092494989C0EB810000B21A
:1004300002909148B0F9001047F695520298504347
:1004400001EBE0304FEAA008BDF9100060438113D2
:10045000BDF914006843A1EBA03000B2844989893A
:10046000C0EB4100401000B20390834841880398DC
:10047000504301EBE03006B2B6F5A04F03DD4FF478
:10048000A040059007E016F5A04F03DA4FF4304086
:10049000059000E0059608FB04F0001301B2BDF9D9
:1004A000140068438013A1EB8000801000B2049018
:1004B000BDF9140060438013810005FB08F00013B0
:1004C00000B20844801000B243F26D7148438013BB
:1004D00000B20590BDF814004FEA400BBDF81000C3
:1004E000404200B25844401004B2BDF810004042EF
:1004F00000B2A0EB0B00401005B2BDF91000A04205
:1005000003DABDF91000059000E00594BDF9100074
:10051000A04202DDBDF9108000E0A046BDF9140044
:10052000A84200DB0595A84500DCA846BDF81400EC
:1005300040444000404200B205904D4A1189BDF947
:100540001420BDF8103002EB83029210524212B216
:10055000900303F05FFE00F5004040F67F41484302
:10056000000C46490880424A1189BDF9142002EB6B
:1005700084029210524212B2900303F04BFE00F537
:10058000004040F67F414843000C3C494880384ACF
:100590001189BDF9142002EB85029210524212B269
:1005A000900303F037FE00F5004040F67F414843DA
:1005B000000C32498880B6F5A04F03DDA6F5A040B7
:1005C00006B207E016F5A04F01DB002602E006F5B3
:1005D000A04006B20EB1012000E000208246002EAD
:1005E00002DA4FF0FF3605E0002E01DD012000E0C9
:1005F000002006464DF68B510398484300140590A1
:100600001D4801884DF68B5202985043C01300B22A
:1006100041F63722504301EB604000B21649088092
:10062000BDF91400002803DA4FF0FF30049007E012
:10063000BDF91400002801DD012000E00020049035
:10064000BAF1000F05D0BDF91000864201D100209B
:10065000059009484188BDF9140041F637225043FE
:1006600001EB204000B20449488008B0BDE8F08F9B
:10067000F8020020EC460008280000202C00002092
:10068000F8B5044600260020009000BF94F824002E
:10069000012801D10220F8BD012084F8240000BF08
:1006A0002046FFF76FFD0646002E62D1A06A20F4B7
:1006B000885040F00200A062022001F0D9F93049D0
:1006C0000968B1FBF0F04000009002E00098401E85
:1006D000009000980028F9D12046FFF77DFD2068A2
:1006E000806840F008002168886001F0E9F805465C
:1006F00011E001F0E5F8401B0A280CD9A06A20F0AF
:10070000020040F01000A06200BF002084F8240026
:1007100000BF0120BFE72068806800F008000028C3
:10072000E7D12068806840F004002168886001F00B
:10073000C7F8054611E001F0C3F8401B0A280CD9A0
:10074000A06A20F0020040F01000A06200BF00206C
:1007500084F8240000BF01209DE72068806800F035
:1007600004000028E7D1A06A20F0020040F0010058
:10077000A06200BF002084F8240000BF30468AE752
:100780002400002038B50246002300200090906825
:1007900000B100BF00BF92F82400012801D102205F
:1007A00038BD012082F8240000BF906890B94868E5
:1007B000012809D11068806B6FF315000C6840EABE
:1007C000C4301468A06338E0906A40F02000906262
:1007D000012332E00C694868A0421ED84C680869C1
:1007E000001BC0F1030000EB80041F20A04040F478
:1007F00040141068806BA0434D680C69641BC4F101
:10080000030404EB84050C68AC400D8A6D1E44EAB9
:10081000055420431468A0630FE04C680869001B6E
:10082000C0F1030000EB80041F20A04040F44014FE
:100830001068806BA0431468A0631068806800F0A3
:10084000010040B91068806847F20104A0438C6938
:1008500020431468A060487D01280FD18869B0F555
:10086000E04F06D11068406840F480601468606012
:1008700004E0906A40F0200090620123087D012886
:100880000DD1487D30B91068406840F4805014683C
:10089000606004E0906A40F02000906201230868E4
:1008A0000A2812D31068C0680C780A3C04EB44058F
:1008B0000724AC40A0430D780A3D05EB45058C6844
:1008C000AC4020431468E0600FE0106800690C78C9
:1008D00004EB44050724AC40A0430D7805EB450527
:1008E0008C68AC402043146820610868102802D04E
:1008F0000868112805D11068806840F40000146869
:10090000A0604868012806D002280DD0032814D022
:1009100004281BD11BE0106840696FF30B00CC6802
:100920002043146860611BE0106880696FF30B005E
:10093000CC6820431468A06112E01068C0696FF3AE
:100940000B00CC6820431468E06109E000BF106828
:10095000006A6FF30B00CC6820431468206200BF6C
:1009600000BF0868102802D00868112827D1174C4A
:100970001068A0421ED11068806800F40000F0B931
:100980001068806840F400001468A06008681028AF
:1009900015D10F4800680F4CB0FBF4F000EB80005D
:1009A0004000009002E00098401E0090009800284F
:1009B000F9D104E0906A40F020009062012300BF6A
:1009C000002082F8240000BF1846E9E60024014018
:1009D0002400002040420F0070B50446834920687F
:1009E0000968884277D100208149096848628148B6
:1009F0000068406AA0F500454FF400407D49096851
:100A000048627D48C08B284400B27B49C8830846B1
:100A1000B0F91E00002806DA0846C08B00F5FA601F
:100A200000B2C8830CE07448B0F91E00B0F5FA6F4C
:100A300006DD7148C08BA0F5FA6000B26E49C8832C
:100A40006D48B0F91E0043F279314843C0F34F209E
:100A5000694988830121654800F0E2F86749086028
:100A600008460068C0F50060C00000B242F2F9011B
:100A70004843801300B26049086102215B4800F0DE
:100A8000CFF85F4908600846006842F6E92148430C
:100A9000C0F3CF205849886101215A4800F0C0F8BE
:100AA0005949086008460068C0F50060C00000B2FF
:100AB00042F2F9014843801300B24F4948610846A9
:100AC00000694969084440424B49C860084640787B
:100AD00005287FD200E087E0DFE800F0031C2A044D
:100AE0006F0000BF4448007801280DD1FFF708FCD3
:100AF00002F0F8FE00224FF40071444800F0DAFEE4
:100B000001203D49487004E000222021404800F0C7
:100B1000D1FE60E0012220213D4800F0CBFE3220D2
:100B200000F002FD02203449487002F0FDFE52E060
:100B30000020384948813048808800B288812E489A
:100B4000808900B208802C48008A00B248802A4878
:100B5000808A00B288802848008B08812648808BD4
:100B6000C880FFF7D9FB2C4800882C4908602A4828
:100B70004088091D086028488088091D08601E48B3
:100B8000007890B903201C49487000222021204899
:100B900000F090FE02F0E4FE322000F0C5FC0022DE
:100BA0004FF40071194800F085FE1348807810B1A9
:100BB0000420114948700EE00CE002F0D1FE012241
:100BC0005102124800F076FE00222021104800F069
:100BD00071FE00E000BF00BF05480068406A06499A
:100BE000486203F059FA00BF70BD00009400002075
:100BF000840100203C01002038000020000000207B
:100C000004000020C4000020080000200010014063
:100C100000080140F80200202C000020342C014084
:100C20000246002001290FD0022909D0032904D04F
:100C3000042908D11368986C09E01368586C06E021
:100C40001368186C03E000BF1368D86B00BF00BFC7
:100C50007047000070B50446002500BF94F82400DA
:100C6000012801D1022070BD012084F8240000BFBA
:100C70002046FFF7B1FA0546002D55D1A06A42F291
:100C80000101884340F48050A0622B4920688842CB
:100C900008D12A48006800F4702008B9012002E059
:100CA000002000E0012020B1A06A20F48010A062A2
:100CB00003E0A06A40F48010A062A06A00F4807093
:100CC00008B90020E06200BF002084F8240000BFC3
:100CD000401F216808602068406800F4806010BBF5
:100CE0002068806800F4E040B0F5E04F15D112496B
:100CF0002068884208D11148006800F4702008B9C3
:100D0000012002E0002000E0012030B1206880686E
:100D100040F40210216888600BE02068806840F48D
:100D200000402168886004E000BF002084F82400AF
:100D300000BF284697E70000002801400424014036
:100D400070B50446002500BF94F82400012801D1A5
:100D5000022070BD012084F8240000BF2046FFF768
:100D60003BFA0546002D5BD1A06A42F2010188439F
:100D700040F48050A0622E492068884208D12D4856
:100D8000006800F4702008B9012002E0002000E0B3
:100D9000012020B1A06A20F48010A06203E0A06AC4
:100DA00040F48010A062A06A00F4807008B90020AE
:100DB000E06200BF002084F8240000BF401F2168CB
:100DC00008602068406840F0800021684860206822
:100DD000406800F4806010BB2068806800F4E04048
:100DE000B0F5E04F15D112492068884208D111486A
:100DF000006800F4702008B9012002E0002000E043
:100E0000012030B12068806840F4021021688860B9
:100E10000BE02068806840F400402168886004E0AE
:100E200000BF002084F8240000BF284691E700009E
:100E30000028014004240140704710B50446206892
:100E4000406800F0200020282FD12068006800F0C2
:100E50000200022829D1A06A00F0100018B9A06A87
:100E600040F40070A0622068806800F46020B0F553
:100E7000602F13D1207B88B92068406820F02000C3
:100E800021684860A06A20F48070A062A06A00F423
:100E9000805018B9A06A40F00100A0622046FFF718
:100EA000CBFF6FF01200216808602068406800F0F6
:100EB000800080283BD12068006800F004000428EE
:100EC00035D1A06A00F0100018B9A06A40F40050B3
:100ED000A0622068806800F4E040B0F5E04F0DD0DB
:100EE0002068406800F48060D0B92068806800F411
:100EF0006020B0F5602F13D1207B88B9206840684E
:100F000020F0800021684860A06A20F48050A06230
:100F1000A06A00F4807018B9A06A40F00100A062D5
:100F20002046FFF759FD6FF00C002168086020682B
:100F3000406800F0400040280FD12068006800F0B1
:100F4000010050B1A06A40F48030A062204600F059
:100F5000A7F86FF001002168086010BD2DE9F0418D
:100F60000446002700250026A84614B90120BDE844
:100F7000F081A06810B1207D00B100BFA06A30B937
:100F80000020E06284F82400204600F08BF8204620
:100F9000FFF7F8F80746A06A00F01000002873D1A8
:100FA000002F71D1A06A20F4885040F00200A062A6
:100FB000E16960680843217B40EA41000643A0687C
:100FC000B0F5807F02D0A068012802D14FF4807074
:100FD00000E000200543207D012811D1207B38B995
:100FE000A069401E4FF4006141EA4030054307E02C
:100FF000A06A40F02000A062E06A40F00100E062D8
:101000002068406820F469402843216848602068CF
:10101000806821490840304321688860A068B0F5A5
:10102000807F02D0A068012802D14FF4807000E0D8
:101030000020B0F5807F03D1208A401E4FEA00587F
:101040002068C06A20F4700040EA08002168C86285
:101050002068806811490840B04208D10020E06251
:10106000A06A20F0020040F00100A06211E0A06A36
:1010700020F0020040F01000A062E06A40F00100A1
:10108000E062012705E0FFE7A06A40F01000A062DF
:10109000012738466BE70000FDF7E1FFFE0E1FFF5A
:1010A0007047000010B586B00446002002900390FF
:1010B000049005902F49206888422AD100BF2E480D
:1010C000806940F400702C4988610846806900F40A
:1010D0000070019000BF00BF00BF0846806940F06B
:1010E000040088610846806900F00400019000BF98
:1010F00000BF03200290039002A9204800F042FAAA
:1011000000220121122000F061FC122000F04EFCB0
:101110002EE01B49206888422AD100BF164880690A
:1011200040F48060144988610846806900F480605A
:10113000019000BF00BF00BF0846806940F010006A
:1011400088610846806900F01000019000BF00BF70
:10115000022002900320039002A90A4800F012FA2C
:1011600000220121122000F031FC122000F01EFCB0
:1011700006B010BD002401400010024000080140EC
:10118000002801400010014010B504460CB90120B0
:1011900010BD607920B900202071204600F004F8CD
:1011A000012060710020F3E708B5094A0168914207
:1011B0000DD100BF0749496941F04001054A51611D
:1011C0001146496901F04001009100BF00BF08BD10
:1011D000003002400010024070B50446002594F82B
:1011E0002100022803D00420A063012548E02068E4
:1011F000006820F00E00216808602068006820F078
:101200000100216808601F492068884201D101203F
:1012100026E01C4914312068884201D110201FE0CB
:10122000184928312068884201D1801518E01549F5
:101230003C312068884201D1801411E011495031BD
:101240002068884202D14FF4803009E00D496431B2
:101250002068884202D14FF4801001E04FF0807086
:10126000084908394860012084F8210000BF0020A7
:1012700084F8200000BF606B10B12046616B884786
:10128000284670BD0800024070B50446E06B056852
:101290002068066894F84010042088402840002800
:1012A00046D006F00400002842D02068006800F014
:1012B000200028B92068006820F004002168086038
:1012C00057492068884201D1042027E0544914314D
:1012D0002068884201D1402020E05149283120680F
:1012E000884201D1001519E04D493C3120688842FF
:1012F00002D14FF4804011E04949503120688842C2
:1013000002D14FF4802009E04549643120688842C9
:1013100002D14FF4800001E04FF08060404908396D
:101320004860E06A00287AD02046E16A884776E083
:1013300094F84010022088402840A0B306F0020034
:1013400088B32068006800F0200040B92068006879
:1013500020F00A0021680860012084F8210030494B
:101360002068884201D1022028E02D4914312068EC
:10137000884201D1202021E0294928312068884273
:1013800001D140151AE026493C312068884202D13B
:101390004FF4005012E0224950312068884203D1B6
:1013A0004FF400300AE017E01D496431206888429C
:1013B00002D14FF4001001E04FF0007018490839D5
:1013C000486000BF002084F8200000BFA06A30B34E
:1013D0002046A16A884722E094F8401008208840FF
:1013E0002840E0B106F00800C8B12068006820F08D
:1013F0000E002168086094F8401001208840E16BDD
:1014000048600120A06384F8210000BF002084F818
:10141000200000BF206B10B12046216B884770BDB3
:10142000080002400146002209B901207047164B0E
:101430000868C01A1423B0FBF3F080000864124857
:101440000838C863022081F821000868026843F662
:10145000F0708243D1E901031843CB6818430B694C
:1014600018434B6918438B691843CB6918430243EF
:101470000868026000208863012081F821000020B4
:1014800081F8200000BFD1E7080002402DE9F041BB
:1014900004460D4616461F464FF0000800BF94F85C
:1014A0002000012802D10220BDE8F081012084F84B
:1014B000200000BF94F8210001282CD1022084F8DC
:1014C00021000020A0632068006820F0010021684E
:1014D00008603B46324629462046FEF7D1FEE06AC8
:1014E00030B12068006840F00E00216808600BE011
:1014F0002068006820F00400216808602068006807
:1015000040F00A00216808602068006840F001008F
:101510002168086006E000BF002084F8200000BFBA
:101520004FF002084046BFE770B5044600F0C8F926
:1015300006462546681C10B104480078054400BFE3
:1015400000F0BEF9801BA842FAD370BD2000002035
:10155000B0F5806F04D140F2DC51024AD18300E043
:1015600000BF70473800002010B5044604480068EA
:10157000204020B1024804602046FFF7E9FF10BD7B
:10158000140401402DE9F8470346002294466EE119
:101590004FF0010808FA02F4D1F8008008EA0400CC
:1015A000A0427DD1DFF8DCA2D1F80480A8EB0A09C3
:1015B000D0453AD014DCB8F1030F50D009DCB8F1B3
:1015C000000F31D0B8F1010F1CD0B8F1020F49D192
:1015D00020E0B8F1110F18D0B8F1120F42D11EE07F
:1015E000B9F5881F25D006DCB9F5803F20D0B9F5C4
:1015F000801F37D11AE0B9F5001F18D0B9F5041FC4
:1016000030D117E0D1F80CC02DE0D1F80C8008F1F2
:10161000040C28E0D1F80C8008F1080C23E0D1F884
:101620000C8008F10C0C1EE000BF00BF00BF00BF23
:1016300000BF00BFD1F80880B8F1000F02D14FF011
:10164000040C0BE0D1F80880B8F1010F03D14FF082
:10165000080C1C6102E04FF0080C5C6103E04FF0E5
:10166000000C00E000BF00BFFF2801D8984601E051
:1016700003F104084646FF2802D84FEA820803E037
:10168000A2F108084FEA88084746D6F800804FF0D4
:101690000F0909FA07F928EA09080CFA07F900E026
:1016A00088E048EA0908C6F80080D1F8048008F00C
:1016B0008058B8F1805F7DD100BFDFF8CC81D8F8C9
:1016C000188048F00108DFF8C091C9F81880C846B2
:1016D000D8F8188008F00108CDF8008000BF00BFDE
:1016E0004FEAB9384FEA920958F829504FEA827800
:1016F0004FEA18794FF00F0808FA09F825EA0805AB
:10170000DFF88881434502D14FF0000816E0DFF88A
:101710008081434502D14FF001080FE0DFF874816A
:10172000434502D14FF0020808E0DFF86C814345E1
:1017300002D14FF0030801E04FF004084FEA82792C
:101740004FEA197908FA09F848EA0505DFF84C81EB
:101750004FEA920948F82950D1F8048008F48038FB
:10176000B8F5803F0AD1DFF83881D8F8008048EA20
:101770000008DFF82C91C9F8008009E0DFF820812B
:10178000D8F8008028EA0008DFF81491C9F8008032
:10179000D1F8048008F40038B8F5003F10D1DFF824
:1017A000008108F10408D8F8008048EA0008DFF852
:1017B000F09000E05AE009F10409C9F800800DE05A
:1017C000DFF8DC8008F10408D8F8008028EA000877
:1017D000DFF8CC9009F10409C9F80080D1F8048041
:1017E00008F48018B8F5801F0ED1DFF8B48008F136
:1017F0000808D8F8008048EA0008DFF8A49009F14A
:101800000809C9F800800DE0DFF8948008F10808A5
:10181000D8F8008028EA0008DFF8849009F1080968
:10182000C9F80080D1F8048008F40018B8F5001F4A
:101830000ED1DFF86C8008F10C08D8F8008048EA77
:101840000008DFF85C9009F10C09C9F800800DE090
:10185000DFF84C8008F10C08D8F8008028EA00086E
:10186000DFF83C9009F10C09C9F80080521CD1F84E
:10187000008028FA02F8B8F1000F7FF489AEBDE8C5
:10188000F88700000000111000100240000801401D
:10189000000C01400010014000140140080001400C
:1018A00000040140024693680B400BB1012000E0A8
:1018B000002070470AB1016101E00B040361704729
:1018C00001480068704700001800002003480068C5
:1018D000034909780844014908607047180000204E
:1018E0002000002010B50848006840F010000649AC
:1018F0000860032000F0A8F8002000F007F800F0CE
:101900002BF8002010BD00000020024070B50446F6
:101910000E4800784FF47A71B1FBF0F00C49096879
:10192000B1FBF0F5284600F02FFD08B1012070BD95
:10193000102C07D200222146501E00F047F805481F
:10194000046001E00120F2E70020F0E72000002021
:10195000240000201C00002008B500BF1148806949
:1019600040F001000F4988610846806900F00100DD
:10197000009000BF00BF00BF0846C06940F0805023
:10198000C8610846C06900F08050009000BF00BFE9
:1019900000BF0549486820F0E06040F000704860F2
:1019A00000BF08BD0010024000000140014608468B
:1019B000002809DB00F01F0301229A4043099B0025
:1019C00003F1E023C3F8002100BF70472DE9F05F69
:1019D00080460D461646002702F0F0FB07463946C2
:1019E0002A46334601F00700C0F1070ABAF1040F96
:1019F00002D94FF0040A01E0C0F1070AD14600F114
:101A0000040ABAF1070F02D24FF0000A01E0A0F178
:101A1000030AD4464FF0010A0AFA09FAAAF1010AA8
:101A20000AEA020A0AFA0CFA4FF0010B0BFA0CFB55
:101A3000ABF1010B0BEA030B4AEA0B0421464046CB
:101A400002F0C4FBBDE8F09F00BF00F00702064BA8
:101A500019684FF6FF031940044B0B4343EA022178
:101A6000014B196000BF70470CED00E00000FA0563
:101A70002DE9F04385B006463BA30FCB01AC0FC464
:101A80003DA0006800904FF00008002500270024CA
:101A9000A146012E30D0022E55D0102E5ED13748EF
:101AA0004468006800F0807000B301A8C4F383416B
:101AB000475C04F4803070B130484068C0F3404067
:101AC0001DF8008004F4803040B12D48B0FBF8F0E0
:101AD00000FB07F502E02B4807FB00F527484068AC
:101AE00000F48000B0F5800F01D1A94603E0680042
:101AF0000321B0FBF1F932E02048046A04F440709D
:101B0000B0F5807F05D104F0020010B14FF4004918
:101B100018E004F44070B0F5007F07D11748406A20
:101B200000F0020010B149F640490BE004F44070A7
:101B3000B0F5407F06D11148006800F4003008B1CC
:101B40004FF224490BE000F093F90C494968C1F3C6
:101B50008131491C4900B0FBF1F900E000BF00BF32
:101B6000484605B0BDE8F0830203040506070809EE
:101B70000A0B0C0D0E0F10100102000000100240A5
:101B800000127A0000093D00F8B504460026002541
:101B9000207800F0010000286BD000274348C0697E
:101BA00000F0805070B900BF4048C06940F08050DC
:101BB0003E49C8610846C06900F08050009000BFEF
:101BC00000BF01273A48006800F48070B0B9384877
:101BD000006840F4807036490860FFF771FE0646E1
:101BE00006E0FFF76DFE801B642801D90320F8BDD5
:101BF0002F48006800F480700028F2D02B48006A5B
:101C000000F440752DB3A08800F44070A84220D0A5
:101C10002648006A20F4407501202649086000200B
:101C200008602248056205F0010090B1FFF748FE08
:101C3000064608E0FFF744FE801B41F288318842E7
:101C400001D90320D3E71948006A00F002000028F8
:101C5000F0D01648006A20F44070616808431349C8
:101C60000862012F04D10846C06920F08050C86185
:101C700000BF207800F00200022807D10B4840681E
:101C800020F44040A168084308494860207800F0EB
:101C90001000102807D10548406820F48000E16852
:101CA0000843024948600020A1E7000000100240FC
:101CB000007000404004424270B504460D460CB925
:101CC000012070BD5A48006800F00700A8420ED2FB
:101CD0005748006820F00700284355490860084627
:101CE000006800F00700A84201D00120E9E7207851
:101CF00000F0020002281DD1207800F00400042822
:101D000005D14C48406840F4E0604A49486020787A
:101D100000F00800082805D14648406840F46050AB
:101D2000444948604348406820F0F000A1680843F7
:101D300040494860207800F0010078B360680128CD
:101D400006D13C48006800F4003090B90120B8E7A3
:101D50006068022806D13748006800F0007040B97A
:101D60000120AEE73348006800F0020008B9012006
:101D7000A7E73048406820F00300616808432D4918
:101D80004860FFF79DFD064609E0FFF799FD801BBF
:101D900041F28831884202D9032092E707E02548C2
:101DA000406800F00C006168B0EB810FEDD1204875
:101DB000006800F00700A8420ED91D48006820F016
:101DC000070028431A4908600846006800F0070029
:101DD000A84201D0012074E7207800F00400042814
:101DE00007D11448406820F4E060E16808431149D5
:101DF0004860207800F00800082808D10D484068A5
:101E000020F46050216940EAC1000A49486000F0AE
:101E10003FF808494968C1F30311074A515CC840BB
:101E20000649086006480068FFF770FD002048E793
:101E30000020024000100240D0460008240000208C
:101E40001C000020014800687047000024000020AA
:101E500000B5FFF7F7FF04494968C1F30221034ABF
:101E6000515CC84000BD000000100240E046000880
:101E700000B5FFF7E7FF04494968C1F3C221034AEF
:101E8000515CC84000BD000000100240E046000860
:101E9000F0B585B00FF26C0C9CE8E01001A8A0E84A
:101EA000E0101CA52D6800950021002200230024CD
:101EB0000020194D696801F00C05F5B1042D02D020
:101EC000082D19D101E0154819E001ADC1F3834691
:101ED000AC5D01F4803555B10F4D6D68C5F34045DB
:101EE0001DF805200D4D6543B5FBF2F302E00C4DE6
:101EF00004FB05F3184602E000BF084800BF00BF1E
:101F000005B0F0BD02030405060708090A0B0C0D15
:101F10000E0F1010010200000010024000127A00A3
:101F200000093D00F8B504460CB90120F8BD207841
:101F300000F00100002878D0F848406800F00C005C
:101F400004280CD0F548406800F00C00082811D196
:101F5000F248406800F48030B0F5803F0AD1EF4885
:101F6000006800F4003000285FD0606800285CD171
:101F70000120DBE700BF6068B0F5803F06D1E7488D
:101F8000006840F48030E549086028E0606858B98E
:101F9000E248006820F48030E049086008460068A4
:101FA00020F4802008601AE06068B0F5A02F0BD103
:101FB000DA48006840F48020D84908600846006884
:101FC00040F4803008600AE0D448006820F4803093
:101FD000D24908600846006820F48020086000BFED
:101FE000606888B1FFF76CFC054606E0FFF768FC07
:101FF000401B642801D9032098E7C848006800F412
:1020000000300028F2D010E0FFF75AFC054606E049
:10201000FFF756FC401B642801D9032086E7BF4820
:10202000006800F400300028F2D1207800F00200AF
:10203000022857D1B948406800F00C0050B1B748A9
:10204000406800F00C00082818D1B448406800F43B
:10205000803098B9B148006800F0020020B12069D2
:10206000012801D0012061E7AC48006820F0F800A9
:10207000616940EAC100A949086033E02069E8B11C
:102080000120A7490860FFF71BFC054606E0FFF7A3
:1020900017FC401B022801D9032047E79F4800682E
:1020A00000F002000028F2D09C48006820F0F80000
:1020B000616940EAC1009949086013E0002098492D
:1020C0000860FFF7FDFB054606E0FFF7F9FB401B44
:1020D000022801D9032029E79048006800F0020097
:1020E0000028F2D1207800F0080008282DD1A0693E
:1020F000B8B101208B490860FFF7E2FB054606E016
:10210000FFF7DEFB401B022801D903200EE78348BE
:10211000406A00F002000028F2D0012001F0EEFB3E
:1021200013E000207F490860FFF7CAFB054606E080
:10213000FFF7C6FB401B022801D90320F6E67748CB
:10214000406A00F002000028F2D1207800F004007C
:10215000042873D100277148C06900F0805070B91D
:1021600000BF6E48C06940F080506C49C8610846A5
:10217000C06900F08050009000BF00BF01276A488E
:10218000006800F48070B0B96748006840F480705F
:1021900065490860FFF794FB054606E0FFF790FBF2
:1021A000401B642801D90320C0E65F48006800F4A2
:1021B00080700028F2D000BFE068012806D157489F
:1021C000006A40F001005549086227E0E06858B90C
:1021D0005248006A20F00100504908620846006A2F
:1021E00020F00400086219E0E06805280BD14B4894
:1021F000006A40F00400494908620846006A40F05D
:10220000010008620AE04548006A20F001004349E5
:1022100008620846006A20F00400086200BFE06817
:10222000A0B1FFF74DFB054609E0FFF749FB401B56
:1022300041F28831884202D9032077E622E037480C
:10224000006A00F002000028EFD012E0FFF738FB30
:10225000054608E0FFF734FB401B41F28831884215
:1022600001D9032062E62D48006A00F00200002830
:10227000F0D1012F05D12948C06920F080502749AD
:10228000C86100BFE069C8B32448406800F00C0092
:10229000082860D0E069022848D10020204908665B
:1022A000FFF70EFB054606E0FFF70AFB401B02287E
:1022B00001D903203AE61948006800F000700028B0
:1022C000F2D1206AB0F5803F07D11448406820F46D
:1022D0000030A168084311494860D4E90801084367
:1022E0000E49496821F4741108430C4948600120E3
:1022F0000B490866FFF7E4FA054607E03DE0FFF703
:10230000DFFA401B022801D903200FE603480068CA
:1023100000F000700028F2D02FE000000010024012
:1023200000004242800442420070004000201449F4
:102330000866FFF7C5FA054606E0FFF7C1FA401B3D
:10234000022801D90320F1E50E48006800F0007072
:102350000028F2D111E0E069012800D1E6E5094842
:10236000466806F48031206A814204D106F4701177
:10237000606A814201D00120D8E50020D6E5000046
:10238000000042420010024070B504462546681E17
:10239000B0F1807F01D301200FE0681E4FF0E021F3
:1023A00048610F214FF0FF3001F010FF00204FF087
:1023B000E021886107200861002070BD70477047E8
:1023C00010B50346002200BF93F83C00012801D15C
:1023D000022010BD012083F83C0000BF22F0FF0066
:1023E000CC6840EA040222F440708C6840EA04029F
:1023F00022F480604C6840EA040222F400600C6819
:1024000040EA040222F480500C6940EA040222F4FB
:1024100000504C6940EA040222F48040CC6940EA52
:1024200004021868426400BF002083F83C0000BF2B
:1024300000BFCEE730B502460B4600BF92F83C0025
:10244000012801D1022030BD012082F83C0000BFEC
:10245000022082F83D00106844681068816824F00A
:1024600070041868044310684460104D1068A84256
:102470000BD01068B0F1804F07D00D4D1068A84206
:1024800003D00C4D1068A84205D121F08001586896
:10249000014310688160012082F83D0000BF0020E8
:1024A00082F83C0000BF00BFCDE70000002C0140D7
:1024B000000400400008004070B504460D4615B900
:1024C00094F842000BE0042D02D14320005D06E0A9
:1024D000082D02D14420005D01E04520005D012867
:1024E00001D0012070BD1DB9022084F842000EE029
:1024F000042D03D102214320015508E0082D03D10A
:1025000002214420015502E0022145200155042208
:102510002946206801F0D9FA2068406C40F4004058
:10252000216848641249206888420BD02068B0F1C5
:10253000804F07D00F492068884203D00E49206899
:1025400088420CD12068806800F00706062E0CD067
:102550002068006840F001002168086005E02068FC
:10256000006840F00100216808600020BAE7000020
:10257000002C0140000400400008004070B50446F3
:102580000D4600222946206801F09FFA00BF20680E
:10259000006A41F21111084050B92068006A8910A0
:1025A000084028B92068406C20F400402168486445
:1025B00000BF00BF2068006A41F21111084050B905
:1025C0002068006A8910084028B92068006820F057
:1025D00001002168086000BF1DB9012084F8420095
:1025E0000EE0042D03D101214320015508E0082D00
:1025F00003D101214420015502E00121452001556C
:10260000002070BD10B504460CB9012010BD94F82F
:102610003D0028B9002084F83C00204600F026F850
:10262000022084F83D00211D206801F003FA0120FA
:1026300084F8460000BF84F83E0001213F20015588
:10264000402001554120015500BF00BF012084F802
:10265000420043200155442001554520015500BF4B
:10266000012084F83D000020D0E7000008B5094AA9
:10267000016891420DD100BF0749C96941F00201CB
:10268000054AD1611146C96901F00201009100BFFC
:1026900000BF08BD0004004000100240014691F850
:1026A0003D00012801D001207047022081F83D0043
:1026B000124B086898420BD00868B0F1804F07D0E1
:1026C0000F4B0868984203D00E4B086898420CD113
:1026D0000868806800F00702062A0CD008680068C5
:1026E00040F001000B68186005E00868006840F0E1
:1026F00001000B6818600020D6E70000002C0140A4
:1027000000040040000800402DE9F04104460D4659
:1027100000BF94F83C00012802D10220BDE8F081FE
:10272000012084F83C0000BF022084F83D002068AE
:10273000866826F0770626F47F462068866028683B
:10274000502833D00CDC202850D004DC00284BD09B
:10275000102851D149E0302849D040284CD139E0E7
:1027600060282DD0702807D0B0F5805F03D0B0F579
:10277000005F41D10DE040E0D5E902136A682068AE
:1027800001F0B4F92068866846F077062068866014
:1027900033E0D5E902136A68206801F0A7F92068E0
:1027A000806840F480402168886026E0EA686968B3
:1027B000206801F06BFA5021206801F0A2F91CE0BA
:1027C000EA686968206801F074FA6021206801F005
:1027D00098F912E0EA686968206801F057FA402128
:1027E000206801F08EF908E000BF00BF00BF296833
:1027F000206801F086F900E000BF00BF012084F8E6
:102800003D0000BF002084F83C0000BF00BF85E70A
:102810002DE9F04104460D4614B90120BDE8F081D0
:1028200094F83D0028B9002084F83C00204600F0D0
:1028300051F8022084F83D002068806844F20701C6
:10284000884321688860211D206801F0F3F8206822
:10285000D0F80880206886692068076A286840EAFE
:10286000080840F203308643A969A86840EA0120BD
:10287000064340F60C4086434FF2F0008643E96978
:10288000E86840EA0120064328690001296A40EA15
:102890000130064327F022076969686840EA0110A1
:1028A00007432068C0F808802068866120680762B6
:1028B000012084F8460084F83E0001213F200155A4
:1028C000012084F8420043200155012084F83D0096
:1028D0000020A3E710B586B00446002002900390C4
:1028E000049005902068B0F1804F45D100BF234887
:1028F000C06940F001002149C8610846C06900F084
:102900000100019000BF00BF00BF0846806940F091
:10291000040088610846806900F00400019000BF4F
:1029200000BF00BF0846806940F008008861084683
:10293000806900F00800019000BF00BF4FF4004024
:10294000029000200390049002A90D48FEF71AFEA1
:102950000820029000200390049002A90948FEF785
:1029600011FE00BF0849486820F4407040F0E06064
:1029700040F48070486000BF06B010BD00100240F7
:1029800000080140000C0140000001402DE9F04327
:1029900004460D4694F83E603F20075D94F842805F
:1029A000432010F804906DB9012E02D1B8F1010F47
:1029B00002D00120BDE8F083022084F83E0084F8B4
:1029C000420025E0042D0CD1012F02D1B9F1010FF5
:1029D00001D00120EEE702213F200155432001559F
:1029E00016E0012E07D1012F05D1B8F1010F02D158
:1029F000B9F1010F01D00120DCE7022084F83E008C
:102A000002213F200155022084F842004320015555
:102A100015B1042D0CD105E001220021206801F040
:102A200043F810E001220421206801F03DF80AE09B
:102A300001220021206801F037F8012204212068DA
:102A400001F032F800BF00BF2068006840F00100CC
:102A5000216808600020ADE7704710B50446206883
:102A60000069C0F34000D8B12068C068C0F34000DE
:102A7000B0B16FF002002168086101202077206862
:102A8000806900F0030018B12046FFF7E5FF05E07C
:102A9000204600F0FFF8204600F0FCF900202077E7
:102AA00020680069C0F38000D8B12068C068C0F316
:102AB0008000B0B16FF00400216808610220207727
:102AC0002068806900F4407018B12046FFF7C4FF09
:102AD00005E0204600F0DEF8204600F0DBF900209B
:102AE000207720680069C0F3C000D8B12068C068B2
:102AF000C0F3C000B0B16FF0080021680861042085
:102B000020772068C06900F0030018B12046FFF765
:102B1000A3FF05E0204600F0BDF8204600F0BAF91A
:102B20000020207720680069C0F30010D8B1206829
:102B3000C068C0F30010B0B16FF0100021680861E8
:102B4000082020772068C06900F4407018B1204642
:102B5000FFF782FF05E0204600F09CF8204600F0D9
:102B600099F9002020772068006900F0010058B131
:102B70002068C06800F0010030B16FF001002168EA
:102B80000861204600F040FA20680069C0F3C010D8
:102B900058B12068C068C0F3C01030B16FF0800039
:102BA000216808612046FFF709FC20680069C0F32E
:102BB000801058B12068C068C0F3801030B16FF049
:102BC000400021680861204600F01FFA2068006973
:102BD000C0F3401058B12068C068C0F3401030B155
:102BE0006FF02000216808612046FFF7E8FB10BD68
:102BF00010B586B004460020029003900490059022
:102C00001F492068884238D100BF1E48806940F0C3
:102C100004001C4988610846806900F004000190A6
:102C200000BF00BF00BF0846806940F0080088610F
:102C30000846806900F00800019000BF00BF4FF413
:102C4000F060029002200390059002A90E48FEF762
:102C500099FC0320029002200390059002A90B48E2
:102C6000FEF790FC00BF0A49486820F0C00040F021
:102C7000E06040F04000486000BF06B010BD0000BA
:102C8000002C01400010024000080140000C0140EF
:102C900000000140704770B504460D46164600BF5F
:102CA00094F83C00012801D1022070BD012084F875
:102CB0003C0000BF36B1042E1BD0082E31D00C2EA4
:102CC0005ED145E02946206800F024FF2068806935
:102CD00040F00800216888612068806920F00400C5
:102CE00021688861206880692969084321688861B2
:102CF00047E02946206800F03DFF2068806940F4E5
:102D00000060216888612068806920F48060216803
:102D1000886120688069296940EA0120216888610A
:102D20002FE02946206800F059FF2068C06940F074
:102D300008002168C8612068C06920F0040021688B
:102D4000C8612068C069296908432168C86118E022
:102D50002946206800F076FF2068C06940F40060D2
:102D60002168C8612068C06920F480602168C8615A
:102D70002068C069296940EA01202168C86100E033
:102D800000BF00BF00BF002084F83C0000BF00BFB0
:102D90008BE710B504460CB9012010BD94F83D0036
:102DA00028B9002084F83C00204600F025F80220D5
:102DB00084F83D00211D206800F03CFE012084F8CD
:102DC000460000BF84F83E0001213F20015540200D
:102DD00001554120015500BF00BF012084F8420089
:102DE00043200155442001554520015500BF0120D5
:102DF00084F83D000020D0E710B586B004460020DE
:102E000002900390049005901E492068884237D1B3
:102E100000BF1D48806940F400601B498861084676
:102E2000806900F40060019000BF00BF00BF084649
:102E3000806940F0040088610846806900F0040061
:102E4000019000BF00BF40200290002003900120AD
:102E5000049002A90D48FEF795FB00BF0C49486895
:102E600020F0C00040F0E06040F04000486000BF4B
:102E7000002211461820FEF7A9FD1820FEF796FD46
:102E800006B010BD002C01400010024000080140B7
:102E9000000001407047000070B504460D4615B9AA
:102EA00094F83E000BE0042D02D13F20005D06E0C7
:102EB000082D02D14020005D01E04120005D012885
:102EC00001D0012070BD1DB9022084F83E000EE043
:102ED000042D03D102213F20015508E0082D03D124
:102EE00002214020015502E002214120015501222A
:102EF0002946206800F0D8FD19492068884201D190
:102F0000012000E0002028B12068406C40F400401F
:102F1000216848641249206888420BD02068B0F1CB
:102F2000804F07D00F492068884203D00E4920689F
:102F300088420CD12068806800F00706062E0CD06D
:102F40002068006840F001002168086005E0206802
:102F5000006840F00100216808600020B2E700002E
:102F6000002C0140000400400008004030B5044639
:102F70000D4600222946206800F096FD2149206870
:102F8000884201D1012000E0002090B100BF2068FC
:102F9000006A41F21111084050B92068006A891096
:102FA000084028B92068406C20F40040216848643B
:102FB00000BF00BF2068006A41F21111084050B9FB
:102FC0002068006A8910084028B92068006820F04D
:102FD00001002168086000BF1DB9012084F83E008F
:102FE0000EE0042D03D101213F20015508E0082DFA
:102FF00003D101214020015502E00121412001556A
:10300000002030BD002C0140704770477047000021
:103010002DE9F0470446206805682068C6682068E6
:1030200047694FF00008C14605F00F08B8F1000FDE
:103030000AD105F0200038B106F0200020B120466A
:1030400000F0F3FEBDE8F087B8F1000F71D007F093
:10305000010018B906F4907000286AD005F001004C
:1030600030B106F4807018B1E06B40F00100E0630D
:1030700005F0040030B107F0010018B1E06B40F03A
:103080000200E06305F0020030B107F0010018B162
:10309000E06B40F00400E06305F0080048B106F082
:1030A000200010B907F0010018B1E06B40F00800F3
:1030B000E063E06B68B305F0200028B106F0200063
:1030C00010B1204600F0B1FE20684069C0F38019BD
:1030D000E06B00F0080010B9B9F1000F22D02046D3
:1030E00000F079FE2068406900F04000B0B120682F
:1030F000406920F0400021684861606B50B1184879
:10310000616B4863606BFEF767F810B1606B416BF1
:1031100088470CE02046FFF779FF08E02046FFF7DC
:1031200075FF04E02046FFF771FF0020E06389E7A8
:10313000FFE705F0800030B106F0800018B12046AE
:1031400000F042FF7EE705F0400030B106F040009D
:1031500018B1204600F04FFE74E700BF72E7000090
:10316000DB3C000810B504460CB9012010BDA06975
:1031700000B100E000BF94F8390028B9002084F8BD
:103180003800204600F028F8242084F83900206810
:10319000C06820F400502168C860204600F096FE08
:1031A0002068006920F49040216808612068406927
:1031B00020F02A00216848612068C06840F400506F
:1031C0002168C8600020E063202084F8390084F87A
:1031D0003A000020CAE7000010B586B0044600207F
:1031E000029003900490059037492068884268D186
:1031F00000BF3648C06940F400303449C861084611
:10320000C06900F40030019000BF00BF00BF084655
:10321000806940F0040088610846806900F004007D
:10322000019000BF00BF0420029002200390032001
:10323000059002A92648FEF7A5F908200290002073
:103240000390049002A92248FEF79CF921482249E4
:1032500008601020486000211F4881608021C16003
:103260000021016141618161C161FEF7DBF808B1B4
:10327000FDF727F800BF18482063446200BF1548D7
:103280001438164908600020486000211348816006
:103290008021C1600021016141618161C161FEF74E
:1032A000C1F808B1FDF70DF800BF0C486063446237
:1032B00000BF002205212620FEF788FB2620FEF70E
:1032C00075FB06B010BD0000004400400010024035
:1032D00000080140800002400C0200205002002043
:1032E00077B581B00446154694F83A00202850D1AD
:1032F000029800B115B9012004B070BD00BF94F868
:103300003800012801D10220F6E7012084F83800B6
:1033100000BF0298A062A5850020E063222084F807
:103320003A001D48616B88621C48616BC8621C488A
:10333000616B08630020616B486302AE32682368EA
:10334000191D2B46606BFEF7A1F800BF002000900E
:1033500020680068009020684068009000BF00BFAF
:1033600000BF002084F8380000BF2068C06840F427
:1033700080702168C8602068406940F001002168C1
:1033800048612068406940F04000216848610020A1
:10339000B2E70220B0E700003F3D0008853D00088D
:1033A000EF3C000870477047F7B50446154694F89F
:1033B000390020283DD1019800B10DB90120FEBD92
:1033C00000BF94F83800012801D10220F7E701205E
:1033D00084F8380000BF01982062A584E5840020AD
:1033E000E063212084F839001348216B8862134878
:1033F000216BC8621248216B08630020216B48636F
:1034000001AE23681A1D31682B46206BFEF73EF88B
:103410006FF040002168086000BF002084F8380089
:1034200000BF2068406940F08000216848610020AA
:10343000C5E70220C3E70000933D0008C93D00082E
:10344000EF3C00087047704700BFFEE700B587B04B
:103450001C216846FCF76DFE1D481E490860811559
:103460001C48816001210173002101754FF4602126
:10347000C161002017494860012116480161FDF72C
:103480006DFD08B1FCF71DFF0020009001200190A8
:103490000220049001200290002006908DF8150073
:1034A0008DF81400039069460A48FDF76BF908B1DE
:1034B000FCF707FF012000900220019069460548B3
:1034C000FDF760F908B1FCF7FCFE07B000BD000095
:1034D000002401409400002000B587B01C216846FC
:1034E000FCF727FE1648174908600021154881603F
:1034F00001210173002101754FF46021C161002099
:103500001049486001210F480161FDF727FD08B10E
:10351000FCF7D7FE0B200090012001900490029050
:10352000002006908DF815008DF814000390694670
:103530000448FDF727F908B1FCF7C3FE07B000BD4A
:1035400000280140C400002010B505480549086066
:103550000846FDF719FE08B1FCF7B3FE10BD0000E8
:10356000003002401000002008B500BF0E4840693E
:1035700040F001000C4948610846406900F0010034
:10358000009000BF00BF002204211020FEF71EFAA9
:103590001020FEF70BFA002203211120FEF716FA85
:1035A0001120FEF703FA08BD0010024000B585B0F7
:1035B0000020019002900390049000BF3D48806974
:1035C00040F010003B4988610846806900F0100017
:1035D000009000BF00BF00BF0846806940F00400B3
:1035E00088610846806900F00400009000BF00BFB9
:1035F00000BF0846806940F008008861084680697D
:1036000000F00800009000BF00BF002220212A48DF
:10361000FEF750F900224FF400712848FEF74AF9EE
:10362000002280212648FEF745F920200190012044
:103630000290002003900220049001A91E48FDF78B
:10364000A1FF4FF4806001901E480290002003907B
:1036500001A91B48FDF796FF4FF40070019001206F
:103660000290002003900220049001A91348FDF766
:1036700089FF4FF4006001901248029001200390EE
:1036800001A90D48FDF77EFF8020019001200290E6
:10369000002003900220049001A90948FDF772FF61
:1036A000002206212820FEF791F92820FEF77EF956
:1036B00005B000BD001002400008014000100140AC
:1036C000000C01400000111000B591B000200F90D7
:1036D00010901C2108A8FCF72CFD20216846FCF75F
:1036E00028FD3348334908600020486020213148D4
:1036F000816040F67F41C16000210161012141618B
:1037000080218161FFF745FB08B1FCF7DAFD7020ED
:103710000F90002010900FA92648FEF78BFE08B1ED
:10372000FCF7CFFD60200890002009900A900B90D4
:103730000C900D900E90002208A91E48FFF7ABFADE
:1037400008B1FCF7BEFD042208A91A48FFF7A3FA46
:1037500008B1FCF7B6FD082208A91648FFF79BFA46
:1037600008B1FCF7AEFD7020089040F67E4009904D
:103770000C2208A90F48FFF78EFA08B1FCF7A1FD4B
:1037800000200090019002902A2003904FF4805076
:10379000049000200590079069460648FEF710FE49
:1037A00008B1FCF78EFD0348FFF722FA11B000BD07
:1037B000002C0140F400002000B58BB0242102A8A9
:1037C000FCF7B7FC0020009001904FF080401949B1
:1037D0000860002048600021164881604FF6FF71A4
:1037E000C1600021016181610320029000200390EB
:1037F00001200490002005900220069000200790F0
:10380000012008900020099002200A9002A909488E
:10381000FEF7FEFF08B1FCF754FD00200090019078
:1038200069460448FEF706FE08B1FCF74AFD0BB0F6
:1038300000BD00003C01002000B587B000200390CF
:103840000490059006900190029014481449086075
:10385000072048600021124881604FF6FF71C16067
:10386000002101618161FEF7CDFE08B1FCF729FD61
:103870004FF48050039003A90948FEF745FF08B1B3
:10388000FCF71FFD00200190029001A90448FEF7FB
:10389000D1FD08B1FCF715FD07B000BD00040040E4
:1038A0008401002010B50A480A4908600A484860A7
:1038B000002108488160C16001610C214161002143
:1038C0008161C161FFF74EFC08B1FCF7FAFC10BD45
:1038D00000440040CC01002080841E0000BFFEE7B1
:1038E0007047000000200349486088604870887075
:1038F00070470000380000207047000008B50849F4
:103900000968C9084FF47A72B1FBF2F141430091A2
:1039100000BF00BF00994A1E00920029F9D108BDDE
:10392000240000207047000010B500210B48FFF76D
:10393000B3FA04210948FFF7AFFA08210748FFF757
:10394000ABFA00210548FEF7B7FD04210348FEF756
:10395000B3FD08210148FEF7AFFD10BDF4000020C3
:1039600010B500210B48FFF701FB04210948FFF7C0
:10397000FDFA08210748FFF7F9FA00210548FEF78C
:10398000FDFD04210348FEF7F9FD08210148FEF77B
:10399000F5FD10BDF400002010B5FDF797FF10BD38
:1039A00000B593B0282109A8FCF7C3FB142104A893
:1039B000FCF7BFFB002000900190029003900220D2
:1039C000099001200D9010200E90022010900021EF
:1039D00011914FF46011129109A8FEF7A3FA08B1F2
:1039E000FCF76FFC0F200490022005900020069049
:1039F0004FF48060079000200890022104A8FEF791
:103A00005BF908B1FCF75DFC022000908003029096
:103A10006846FEF7B9F808B1FCF753FC13B000BDD7
:103A20007047000010B50248FFF717F810BD0000FE
:103A3000F400002010B50268184B984208D0B0F18D
:103A4000804F05D0164B984202D0164B984203D1B6
:103A500022F070024B681A43104B984208D0B0F124
:103A6000804F05D00E4B984202D00E4B984203D1A6
:103A700022F44072CB681A4322F080034C6943EA77
:103A8000040202608B68C3620B688362034B984236
:103A900001D10B6903630123436110BD002C014078
:103AA000000400400008004030B501F01F0501246B
:103AB00004FA05F3046A9C430462046A01F01F05DA
:103AC00002FA05F52C43046230BD30B501F01F0544
:103AD000042404FA05F3046A9C430462046A01F0B6
:103AE0001F0502FA05F52C43046230BD30B50C46C3
:103AF000816821F47F4142EA0325254329438160FF
:103B000030BD0A46816821F0700142F00703194375
:103B10008160704730B5056A25F001050562026ACB
:103B20004368846924F0700424F003040D682C4376
:103B300022F002028D682A430D4DA84206D100BF33
:103B400022F00802CD682A4322F00402084DA84260
:103B500007D123F4807323F400734D692B438D69DF
:103B60002B43436084614D684563026230BD0000B1
:103B7000002C014030B5056A25F010050562026A87
:103B80004368846924F4E04424F440740D6844EAF2
:103B9000052422F020028D6842EA05120E4DA8424B
:103BA00007D100BF22F08002CD6842EA051222F060
:103BB0004002094DA84209D123F4806323F4006335
:103BC0004D6943EA85038D6943EA85034360846157
:103BD0004D688563026230BD002C014030B5056A36
:103BE00025F480750562026A4368C46924F0700494
:103BF00024F003040D682C4322F400728D6842EA1D
:103C000005220F4DA84207D100BF22F40062CD6803
:103C100042EA052222F48062094DA84209D123F428
:103C2000805323F400534D6943EA05138D6943EA39
:103C300005134360C4614D68C563026230BD000076
:103C4000002C014030B5056A25F480550562036AF1
:103C50004468C26922F4E04222F440720D6842EAEC
:103C6000052223F400538D6843EA0533064DA8422C
:103C700004D124F480444D6944EA85144460C2614F
:103C80004D680564036230BD002C014030B50B4621
:103C90001446026A056A25F001050562816921F072
:103CA000F00141EA041122F00A021A438161026222
:103CB00030BD30B50B461446056A25F01005056287
:103CC0008169026A21F4704141EA043122F0A002C4
:103CD00042EA03128161026230BD70B505466C6A2A
:103CE0000020E085E0842046FFF790F970BD70B5B4
:103CF00006460025746A20684069C0F3C01594F830
:103D00003900212805D125B10020E084204600F0AB
:103D100082F820684069C0F3801594F83A002228A0
:103D200005D125B10020E085204600F054F8E06B75
:103D300040F01000E0632046FFF768F970BD70B5F1
:103D400005466C6A2868006800F02000B0B90020C1
:103D5000E0852068C06820F480702168C860206811
:103D6000406920F00100216848612068406920F026
:103D7000400021684861202084F83A002046FFF77F
:103D800011FB70BD70B50446656A2846FFF70BFB52
:103D900070BD70B505466C6A2868006800F02000A8
:103DA00070B90020E0842068406920F0800021681C
:103DB00048612068C06840F040002168C86002E0A7
:103DC0002046FFF73FFB70BD70B50446656A284684
:103DD000FFF739FB70BD0168C96821F49071026872
:103DE000D1600168496921F0010102685161202117
:103DF00080F83A10704710B504462068C06820F07B
:103E000040002168C860202084F839002046FFF770
:103E100019FB002010BD0168C96821F0C0010268CB
:103E2000D160202180F83910704770B5044694F8AD
:103E30003A00222847D1A068B0F5805F0CD12069F4
:103E400050B90025A66A20684068C0F30800308099
:103E5000A06A801CA06215E0A56A0026A068B0F5E3
:103E6000805F03D0A06828B9206918B9206840682D
:103E7000287004E02068406800F07F002870A06A85
:103E8000401CA062E08D401E80B2E085C8B9206869
:103E9000C06820F020002168C8602068C06820F455
:103EA00080702168C8602068406920F001002168A6
:103EB0004861202084F83A002046FFF773FA00207A
:103EC00070BD0020FCE70220FAE7000070B5044650
:103ED0002168096921F44051E268114322681161A7
:103EE0002269A1681143626941EA02052168C96833
:103EF00041F20C62914329432268D16021684969EB
:103F000021F44071A2691143226851612D4A216850
:103F1000914202D1FDF7ACFF01E0FDF799FF00EB04
:103F2000C00101EB001162689200B1FBF2F100EBFD
:103F3000C00202EB001263689B00B2FBF3F2642341
:103F4000B2FBF3F202EBC20303EB0212A1EB82011C
:103F5000322202EB01116422B1FBF2F101F0F00117
:103F600000EBC00202EB001263689B00B2FBF3F2AD
:103F70006423B2FBF3F201EB021200EBC00101EB90
:103F8000001163689B00B1FBF3F100EBC00303EB8E
:103F900000136668B600B3FBF6F36426B3FBF6F3D2
:103FA00003EBC30606EB0313A1EB8301322303EB00
:103FB00001116423B1FBF3F101F00F0111442268F8
:103FC000916070BD00380140014691F83900212808
:103FD00028D18868B0F5805F0BD1086948B90A6AB2
:103FE0001088C0F308000B685860086A801C0862DB
:103FF00005E00B6A581C086218780B685860C88C7A
:10400000401E80B2C88458B90868C06820F080009B
:104010000B68D8600868C06840F040000B68D86042
:10402000002070470220FCE738B51848FEF7F0FF83
:10403000164800680068C0F3001028B31448C0791F
:104040001349897900EB012085B20621104800F060
:1040500023FA0446A54205D10E480D490A680260BC
:104060008988818008220A490848FFF739F900BF8A
:104070000020009005480068006800900348006830
:104080004068009000BF00BF38BD0000CC01002098
:10409000940200206800002010B54148008848BB09
:1040A0003F480088401C3E4908803EA000883E49A9
:1040B00008803E48808B00B248803C48808900B22E
:1040C00088803A48008A00B2C88000BF0020384982
:1040D000096B81F8200000BF2020354981F83900A4
:1040E0000120096B81F8210008222F493048FFF791
:1040F0005BF953E02A48008840F2E731884227D133
:104100002A48808B00B2284908802848808900B25C
:1041100048802648008A00B2888026A00088C8808F
:1041200000BF00202249096B81F8200000BF202039
:104130001F4981F839000120096B81F8210008220C
:1041400019491B48FFF730F900201549088025E080
:1041500013480088401C124908801448808B00B224
:10416000114908801148808900B248800F48008AB0
:1041700000B2888000BF00200D49096B81F8200043
:1041800000BF20200A4981F839000120096B81F81D
:104190002100062204490648FFF706F910BD000079
:1041A0000C00002053530000740000203800002051
:1041B000CC0100204545000000BFFEE70248006832
:1041C000C0F30220704700000CED00E010B500289D
:1041D00004DB0A07130E054A135406E00A07140EFF
:1041E000034A00F00F031B1FD45410BD00E400E08D
:1041F00018ED00E002E008C8121F08C1002AFAD139
:1042000070477047002001E001C1121F002AFBD156
:1042100070470000F0B5024639B9002A02DB47F6C4
:10422000FF7700E0114F38461FE0002A02DAD7433B
:104230007F1C00E017463C46002902DACF437F1C72
:1042400000E00F463E46D70F87EAD175B4FBF6F380
:104250002DB1B4FBF6F706FB174404B15B1C15B196
:104260005F423FB200E01FB23846F0BD0080FFFF62
:1042700010B5034632F91340581C32F91000001BE8
:10428000484304EB204000B210BD000008B5FDF724
:1042900029FBFFF785FBFFF789F9FFF765F9FFF7C2
:1042A000D5F8FFF719F9FFF70FFAFFF785FAFFF7CF
:1042B000C3FAFFF7F7FAFFF747F96148FCF7E0F9AF
:1042C0006048FCF7DDF96FF004005D49096808609B
:1042D0005C49096808605A48FCF732FD5948FCF708
:1042E000B9FC0A20FDF720F96FF0800056490968F3
:1042F00008615548FEF7D2F90C215348FEF7CCFD72
:104300006FF080005149096808613C214F48FEF771
:104310003DFB6FF080004E49096808614C48FEF78C
:10432000BDF908224B494C48FEF7DAFF4A480068BD
:10433000C06840F0100048490968C86000BF00200C
:104340000090454800680068009043480068406855
:10435000009000BF00BF40480068C06820F04000E7
:104360003D490968C8606FF040003B490968086032
:104370006420FDF7D9F862E038488069B0F5205F25
:1043800003D201203549887021E034488069B0F5B6
:10439000904F0CD90220314988700022802130488A
:1043A000FDF788FA2D4880692C49C8620FE02B4838
:1043B0008069B0F5705F05D9012280212848FDF79A
:1043C00079FA04E0002280212548FDF773FA4FF4C2
:1043D00000612448FDF766FA20B140212148FDF72D
:1043E00061FA38B9012251021F48FDF763FA04202F
:1043F0001A4988701D48808818B101201749087033
:1044000002E00020154908701848B0F9000013496F
:10441000486008464068B0F5A05F03DD4FF4A05047
:10442000486007E00D48406810F5A05F02DA1048C8
:104430000A4948600D48B0F90200084988609BE7C6
:1044400094000020C4000020F40000203C01002063
:104450008401002094020020CC01002038000020BC
:10446000000C0140000801400010014068000020DD
:1044700000ECFFFFF0B50446671ABEB2B5099542DD
:1044800004D22846B7063F0C1F6003E0501E4FF4CD
:1044900080371F60F0BD000070B502460C46FF2556
:1044A000FF2309E012F8010B80EA03010648405C93
:1044B00080EA05030548455C201EA4F10106B4B25C
:1044C000F0D143EA052070BDD0440008D045000873
:1044D00000C1814001C0804101C0804100C18140D4
:1044E00001C0804100C1814000C1814001C08041C4
:1044F00001C0804100C1814000C1814001C08041B4
:1045000000C1814001C0804101C0804100C18140A3
:1045100001C0804100C1814000C1814001C0804193
:1045200000C1814001C0804101C0804100C1814083
:1045300000C1814001C0804101C0804100C1814073
:1045400001C0804100C1814000C1814001C0804163
:1045500001C0804100C1814000C1814001C0804153
:1045600000C1814001C0804101C0804100C1814043
:1045700000C1814001C0804101C0804100C1814033
:1045800001C0804100C1814000C1814001C0804123
:1045900000C1814001C0804101C0804100C1814013
:1045A00001C0804100C1814000C1814001C0804103
:1045B00001C0804100C1814000C1814001C08041F3
:1045C00000C1814001C0804101C0804100C18140E3
:1045D00000C0C101C30302C2C60607C705C5C404A3
:1045E000CC0C0DCD0FCFCE0E0ACACB0BC90908C813
:1045F000D81819D91BDBDA1A1EDEDF1FDD1D1CDC03
:1046000014D4D515D71716D6D21213D311D1D01072
:10461000F03031F133F3F23236F6F737F53534F462
:104620003CFCFD3DFF3F3EFEFA3A3BFB39F9F838D2
:1046300028E8E929EB2B2AEAEE2E2FEF2DEDEC2CC2
:10464000E42425E527E7E62622E2E323E12120E032
:10465000A06061A163A3A26266A6A767A56564A422
:104660006CACAD6DAF6F6EAEAA6A6BAB69A9A86892
:1046700078B8B979BB7B7ABABE7E7FBF7DBDBC7C82
:10468000B47475B577B7B67672B2B373B17170B0F2
:1046900050909151935352929656579755959454E2
:1046A0009C5C5D9D5F9F9E5E5A9A9B5B9959589852
:1046B000884849894B8B8A4A4E8E8F4F8D4D4C8C42
:1046C00044848545874746868242438341818040B2
:1046D00000000000000000000102030406070809B2
:1046E0000000000001020304340000200000650007
:1046F000C9002E019201F7015B02C0022403880366
:10470000ED035104B5041A057E05E2054606AA0626
:104710000E077207D60739089D0801096409C70901
:104720002B0A8E0AF10A540BB70B1A0C7C0CDF0C07
:10473000410DA40D060E680ECA0E2B0F8D0FEE0F45
:104740005010B11012117311D31134129412F412CB
:104750005413B41313147314D21431159015EE15A9
:104760004C16AB1609176617C41721187E18DB18EC
:1047700037199319EF194B1AA71A021B5D1BB81BA7
:10478000121C6C1CC61C201D791DD31D2B1E841EE3
:10479000DC1E341F8C1FE31F3A209120E7203D21AF
:1047A0009321E8213D229222E7223B238E23E2231C
:1047B00035248824DA242C257E25CF252026712631
:1047C000C12611276027AF27FE274C289A28E72803
:1047D00035298129CE291A2A652AB02AFB2A452B98
:1047E0008F2BD82B212C6A2CB22CFA2C412D882D02
:1047F000CF2D152E5A2E9F2EE42E282F6C2FAF2F43
:10480000F22F34307630B830F93039317931B9316E
:10481000F83136327432B232EF322C336833A3338C
:10482000DF33193453348D34C634FF3437356E35A5
:10483000A535DC35123648367D36B136E5361837C3
:104840004B377E37B037E137123842387138A138EC
:10485000CF38FD382B3958398439B039DB39063A2D
:10486000303A593A823AAB3AD33AFA3A213B473B8B
:104870006D3B923BB63BDA3BFD3B203C423C643C0B
:10488000853CA53CC53CE43C033D213D3F3D5B3DB3
:10489000783D933DAF3DC93DE33DFC3D153E2D3E8A
:1048A000453E5C3E723E883E9D3EB13EC53ED83E92
:1048B000EB3EFD3E0F3F203F303F403F4F3F5D3FCF
:1048C0006B3F783F853F913F9C3FA73FB13FBB3F48
:1048D000C43FCC3FD43FDB3FE13FE73FEC3FF13FFC
:1048E000F53FF83FFB3FFD3FFF3F00400040000029
:1048F000104900080000002038000000F4410008C2
:104900004849000838000020D00600000442000892
:104910000000000000000000000000000000000097
:104920000000000000000000000000001000000077
:10493000010000000024F40000000000000000005E
:0849400000000000000000006F
:04000005080000ED02
:00000001FF
